{
	"Users/eoghan/repos/ScheduledFunctionCallDirectory/src/ScheduledFunctionCallDirectory.sol": {
		"ScheduledFunctionCallDirectory": {
			"abi": [
				{
					"anonymous": false,
					"inputs": [
						{
							"indexed": false,
							"internalType": "uint256",
							"name": "timestamp",
							"type": "uint256"
						},
						{
							"indexed": false,
							"internalType": "uint256",
							"name": "reward",
							"type": "uint256"
						},
						{
							"indexed": false,
							"internalType": "uint256",
							"name": "id",
							"type": "uint256"
						},
						{
							"indexed": false,
							"internalType": "bytes",
							"name": "args",
							"type": "bytes"
						}
					],
					"name": "CallScheduled",
					"type": "event"
				},
				{
					"inputs": [
						{
							"internalType": "uint256",
							"name": "call",
							"type": "uint256"
						}
					],
					"name": "CallRewards",
					"outputs": [
						{
							"internalType": "uint256",
							"name": "",
							"type": "uint256"
						}
					],
					"stateMutability": "view",
					"type": "function"
				},
				{
					"inputs": [
						{
							"internalType": "uint256",
							"name": "callToPop",
							"type": "uint256"
						},
						{
							"internalType": "address payable",
							"name": "recipient",
							"type": "address"
						}
					],
					"name": "PopCall",
					"outputs": [],
					"stateMutability": "nonpayable",
					"type": "function"
				},
				{
					"inputs": [
						{
							"internalType": "address",
							"name": "target",
							"type": "address"
						},
						{
							"internalType": "uint256",
							"name": "blockNumber",
							"type": "uint256"
						},
						{
							"internalType": "uint256",
							"name": "reward",
							"type": "uint256"
						},
						{
							"internalType": "uint256",
							"name": "value",
							"type": "uint256"
						},
						{
							"internalType": "bytes",
							"name": "args",
							"type": "bytes"
						}
					],
					"name": "ScheduleCall",
					"outputs": [],
					"stateMutability": "payable",
					"type": "function"
				},
				{
					"inputs": [],
					"name": "number",
					"outputs": [
						{
							"internalType": "uint256",
							"name": "",
							"type": "uint256"
						}
					],
					"stateMutability": "view",
					"type": "function"
				}
			],
			"devdoc": {
				"author": "eoghan",
				"kind": "dev",
				"methods": {},
				"title": "ScheduledFunctionCallDirectory",
				"version": 1
			},
			"evm": {
				"assembly": "    /* \"Users/eoghan/repos/ScheduledFunctionCallDirectory/src/ScheduledFunctionCallDirectory.sol\":376:2390  contract ScheduledFunctionCallDirectory {... */\n  mstore(0x40, 0x80)\n  callvalue\n  dup1\n  iszero\n  tag_1\n  jumpi\n  0x00\n  dup1\n  revert\ntag_1:\n  pop\n  dataSize(sub_0)\n  dup1\n  dataOffset(sub_0)\n  0x00\n  codecopy\n  0x00\n  return\nstop\n\nsub_0: assembly {\n        /* \"Users/eoghan/repos/ScheduledFunctionCallDirectory/src/ScheduledFunctionCallDirectory.sol\":376:2390  contract ScheduledFunctionCallDirectory {... */\n      mstore(0x40, 0x80)\n      jumpi(tag_1, lt(calldatasize, 0x04))\n      shr(0xe0, calldataload(0x00))\n      dup1\n      0x2488b89d\n      eq\n      tag_2\n      jumpi\n      dup1\n      0x8381f58a\n      eq\n      tag_3\n      jumpi\n      dup1\n      0x8e04743d\n      eq\n      tag_4\n      jumpi\n      dup1\n      0xc19fcd66\n      eq\n      tag_5\n      jumpi\n    tag_1:\n      0x00\n      dup1\n      revert\n        /* \"Users/eoghan/repos/ScheduledFunctionCallDirectory/src/ScheduledFunctionCallDirectory.sol\":1268:2153  function PopCall(uint256 callToPop, address payable recipient) public IsItTime(timestamps[callToPop]) {... */\n    tag_2:\n      callvalue\n      dup1\n      iszero\n      tag_6\n      jumpi\n      0x00\n      dup1\n      revert\n    tag_6:\n      pop\n      tag_7\n      0x04\n      dup1\n      calldatasize\n      sub\n      dup2\n      add\n      swap1\n      tag_8\n      swap2\n      swap1\n      tag_9\n      jump\t// in\n    tag_8:\n      tag_10\n      jump\t// in\n    tag_7:\n      stop\n        /* \"Users/eoghan/repos/ScheduledFunctionCallDirectory/src/ScheduledFunctionCallDirectory.sol\":422:443  uint256 public number */\n    tag_3:\n      callvalue\n      dup1\n      iszero\n      tag_11\n      jumpi\n      0x00\n      dup1\n      revert\n    tag_11:\n      pop\n      tag_12\n      tag_13\n      jump\t// in\n    tag_12:\n      mload(0x40)\n      tag_14\n      swap2\n      swap1\n      tag_15\n      jump\t// in\n    tag_14:\n      mload(0x40)\n      dup1\n      swap2\n      sub\n      swap1\n      return\n        /* \"Users/eoghan/repos/ScheduledFunctionCallDirectory/src/ScheduledFunctionCallDirectory.sol\":2159:2261  function CallRewards(uint256 call) public view returns (uint256) {... */\n    tag_4:\n      callvalue\n      dup1\n      iszero\n      tag_16\n      jumpi\n      0x00\n      dup1\n      revert\n    tag_16:\n      pop\n      tag_17\n      0x04\n      dup1\n      calldatasize\n      sub\n      dup2\n      add\n      swap1\n      tag_18\n      swap2\n      swap1\n      tag_19\n      jump\t// in\n    tag_18:\n      tag_20\n      jump\t// in\n    tag_17:\n      mload(0x40)\n      tag_21\n      swap2\n      swap1\n      tag_15\n      jump\t// in\n    tag_21:\n      mload(0x40)\n      dup1\n      swap2\n      sub\n      swap1\n      return\n        /* \"Users/eoghan/repos/ScheduledFunctionCallDirectory/src/ScheduledFunctionCallDirectory.sol\":739:1262  function ScheduleCall(address target, uint256 blockNumber, uint256 reward, uint256 value, bytes calldata args) external payable {... */\n    tag_5:\n      tag_22\n      0x04\n      dup1\n      calldatasize\n      sub\n      dup2\n      add\n      swap1\n      tag_23\n      swap2\n      swap1\n      tag_24\n      jump\t// in\n    tag_23:\n      tag_25\n      jump\t// in\n    tag_22:\n      stop\n        /* \"Users/eoghan/repos/ScheduledFunctionCallDirectory/src/ScheduledFunctionCallDirectory.sol\":1268:2153  function PopCall(uint256 callToPop, address payable recipient) public IsItTime(timestamps[callToPop]) {... */\n    tag_10:\n        /* \"Users/eoghan/repos/ScheduledFunctionCallDirectory/src/ScheduledFunctionCallDirectory.sol\":1347:1357  timestamps */\n      0x03\n        /* \"Users/eoghan/repos/ScheduledFunctionCallDirectory/src/ScheduledFunctionCallDirectory.sol\":1347:1368  timestamps[callToPop] */\n      0x00\n        /* \"Users/eoghan/repos/ScheduledFunctionCallDirectory/src/ScheduledFunctionCallDirectory.sol\":1358:1367  callToPop */\n      dup4\n        /* \"Users/eoghan/repos/ScheduledFunctionCallDirectory/src/ScheduledFunctionCallDirectory.sol\":1347:1368  timestamps[callToPop] */\n      dup2\n      mstore\n      0x20\n      add\n      swap1\n      dup2\n      mstore\n      0x20\n      add\n      0x00\n      keccak256\n      sload\n        /* \"Users/eoghan/repos/ScheduledFunctionCallDirectory/src/ScheduledFunctionCallDirectory.sol\":2336:2340  time */\n      dup1\n        /* \"Users/eoghan/repos/ScheduledFunctionCallDirectory/src/ScheduledFunctionCallDirectory.sol\":2317:2332  block.timestamp */\n      timestamp\n        /* \"Users/eoghan/repos/ScheduledFunctionCallDirectory/src/ScheduledFunctionCallDirectory.sol\":2317:2340  block.timestamp >= time */\n      lt\n      iszero\n        /* \"Users/eoghan/repos/ScheduledFunctionCallDirectory/src/ScheduledFunctionCallDirectory.sol\":2309:2370  require(block.timestamp >= time, \"Call isn't scheduled yet.\") */\n      tag_27\n      jumpi\n      mload(0x40)\n      0x08c379a000000000000000000000000000000000000000000000000000000000\n      dup2\n      mstore\n      0x04\n      add\n      tag_28\n      swap1\n      tag_29\n      jump\t// in\n    tag_28:\n      mload(0x40)\n      dup1\n      swap2\n      sub\n      swap1\n      revert\n    tag_27:\n        /* \"Users/eoghan/repos/ScheduledFunctionCallDirectory/src/ScheduledFunctionCallDirectory.sol\":1407:1427  uint256 callerReward */\n      0x00\n        /* \"Users/eoghan/repos/ScheduledFunctionCallDirectory/src/ScheduledFunctionCallDirectory.sol\":1430:1437  rewards */\n      0x04\n        /* \"Users/eoghan/repos/ScheduledFunctionCallDirectory/src/ScheduledFunctionCallDirectory.sol\":1430:1448  rewards[callToPop] */\n      0x00\n        /* \"Users/eoghan/repos/ScheduledFunctionCallDirectory/src/ScheduledFunctionCallDirectory.sol\":1438:1447  callToPop */\n      dup6\n        /* \"Users/eoghan/repos/ScheduledFunctionCallDirectory/src/ScheduledFunctionCallDirectory.sol\":1430:1448  rewards[callToPop] */\n      dup2\n      mstore\n      0x20\n      add\n      swap1\n      dup2\n      mstore\n      0x20\n      add\n      0x00\n      keccak256\n      sload\n        /* \"Users/eoghan/repos/ScheduledFunctionCallDirectory/src/ScheduledFunctionCallDirectory.sol\":1407:1448  uint256 callerReward = rewards[callToPop] */\n      swap1\n      pop\n        /* \"Users/eoghan/repos/ScheduledFunctionCallDirectory/src/ScheduledFunctionCallDirectory.sol\":1458:1471  uint256 value */\n      0x00\n        /* \"Users/eoghan/repos/ScheduledFunctionCallDirectory/src/ScheduledFunctionCallDirectory.sol\":1474:1480  values */\n      0x05\n        /* \"Users/eoghan/repos/ScheduledFunctionCallDirectory/src/ScheduledFunctionCallDirectory.sol\":1474:1491  values[callToPop] */\n      0x00\n        /* \"Users/eoghan/repos/ScheduledFunctionCallDirectory/src/ScheduledFunctionCallDirectory.sol\":1481:1490  callToPop */\n      dup7\n        /* \"Users/eoghan/repos/ScheduledFunctionCallDirectory/src/ScheduledFunctionCallDirectory.sol\":1474:1491  values[callToPop] */\n      dup2\n      mstore\n      0x20\n      add\n      swap1\n      dup2\n      mstore\n      0x20\n      add\n      0x00\n      keccak256\n      sload\n        /* \"Users/eoghan/repos/ScheduledFunctionCallDirectory/src/ScheduledFunctionCallDirectory.sol\":1458:1491  uint256 value = values[callToPop] */\n      swap1\n      pop\n        /* \"Users/eoghan/repos/ScheduledFunctionCallDirectory/src/ScheduledFunctionCallDirectory.sol\":1501:1519  bytes storage args */\n      0x00\n        /* \"Users/eoghan/repos/ScheduledFunctionCallDirectory/src/ScheduledFunctionCallDirectory.sol\":1522:1531  arguments */\n      0x01\n        /* \"Users/eoghan/repos/ScheduledFunctionCallDirectory/src/ScheduledFunctionCallDirectory.sol\":1522:1542  arguments[callToPop] */\n      0x00\n        /* \"Users/eoghan/repos/ScheduledFunctionCallDirectory/src/ScheduledFunctionCallDirectory.sol\":1532:1541  callToPop */\n      dup8\n        /* \"Users/eoghan/repos/ScheduledFunctionCallDirectory/src/ScheduledFunctionCallDirectory.sol\":1522:1542  arguments[callToPop] */\n      dup2\n      mstore\n      0x20\n      add\n      swap1\n      dup2\n      mstore\n      0x20\n      add\n      0x00\n      keccak256\n        /* \"Users/eoghan/repos/ScheduledFunctionCallDirectory/src/ScheduledFunctionCallDirectory.sol\":1501:1542  bytes storage args = arguments[callToPop] */\n      swap1\n      pop\n        /* \"Users/eoghan/repos/ScheduledFunctionCallDirectory/src/ScheduledFunctionCallDirectory.sol\":1552:1564  address addr */\n      0x00\n        /* \"Users/eoghan/repos/ScheduledFunctionCallDirectory/src/ScheduledFunctionCallDirectory.sol\":1567:1576  addresses */\n      0x02\n        /* \"Users/eoghan/repos/ScheduledFunctionCallDirectory/src/ScheduledFunctionCallDirectory.sol\":1567:1587  addresses[callToPop] */\n      0x00\n        /* \"Users/eoghan/repos/ScheduledFunctionCallDirectory/src/ScheduledFunctionCallDirectory.sol\":1577:1586  callToPop */\n      dup9\n        /* \"Users/eoghan/repos/ScheduledFunctionCallDirectory/src/ScheduledFunctionCallDirectory.sol\":1567:1587  addresses[callToPop] */\n      dup2\n      mstore\n      0x20\n      add\n      swap1\n      dup2\n      mstore\n      0x20\n      add\n      0x00\n      keccak256\n      0x00\n      swap1\n      sload\n      swap1\n      0x0100\n      exp\n      swap1\n      div\n      0xffffffffffffffffffffffffffffffffffffffff\n      and\n        /* \"Users/eoghan/repos/ScheduledFunctionCallDirectory/src/ScheduledFunctionCallDirectory.sol\":1552:1587  address addr = addresses[callToPop] */\n      swap1\n      pop\n        /* \"Users/eoghan/repos/ScheduledFunctionCallDirectory/src/ScheduledFunctionCallDirectory.sol\":1614:1634  bool functionSuccess */\n      0x00\n        /* \"Users/eoghan/repos/ScheduledFunctionCallDirectory/src/ScheduledFunctionCallDirectory.sol\":1639:1643  addr */\n      dup2\n        /* \"Users/eoghan/repos/ScheduledFunctionCallDirectory/src/ScheduledFunctionCallDirectory.sol\":1639:1648  addr.call */\n      0xffffffffffffffffffffffffffffffffffffffff\n      and\n        /* \"Users/eoghan/repos/ScheduledFunctionCallDirectory/src/ScheduledFunctionCallDirectory.sol\":1656:1661  value */\n      dup5\n        /* \"Users/eoghan/repos/ScheduledFunctionCallDirectory/src/ScheduledFunctionCallDirectory.sol\":1663:1667  args */\n      dup5\n        /* \"Users/eoghan/repos/ScheduledFunctionCallDirectory/src/ScheduledFunctionCallDirectory.sol\":1639:1668  addr.call{value: value}(args) */\n      mload(0x40)\n      tag_31\n      swap2\n      swap1\n      tag_32\n      jump\t// in\n    tag_31:\n      0x00\n      mload(0x40)\n      dup1\n      dup4\n      sub\n      dup2\n      dup6\n      dup8\n      gas\n      call\n      swap3\n      pop\n      pop\n      pop\n      returndatasize\n      dup1\n      0x00\n      dup2\n      eq\n      tag_35\n      jumpi\n      mload(0x40)\n      swap2\n      pop\n      and(add(returndatasize, 0x3f), not(0x1f))\n      dup3\n      add\n      0x40\n      mstore\n      returndatasize\n      dup3\n      mstore\n      returndatasize\n      0x00\n      0x20\n      dup5\n      add\n      returndatacopy\n      jump(tag_34)\n    tag_35:\n      0x60\n      swap2\n      pop\n    tag_34:\n      pop\n        /* \"Users/eoghan/repos/ScheduledFunctionCallDirectory/src/ScheduledFunctionCallDirectory.sol\":1613:1668  (bool functionSuccess,) = addr.call{value: value}(args) */\n      pop\n      swap1\n      pop\n        /* \"Users/eoghan/repos/ScheduledFunctionCallDirectory/src/ScheduledFunctionCallDirectory.sol\":1701:1705  true */\n      0x01\n        /* \"Users/eoghan/repos/ScheduledFunctionCallDirectory/src/ScheduledFunctionCallDirectory.sol\":1682:1705  functionSuccess != true */\n      iszero\n      iszero\n        /* \"Users/eoghan/repos/ScheduledFunctionCallDirectory/src/ScheduledFunctionCallDirectory.sol\":1682:1697  functionSuccess */\n      dup2\n        /* \"Users/eoghan/repos/ScheduledFunctionCallDirectory/src/ScheduledFunctionCallDirectory.sol\":1682:1705  functionSuccess != true */\n      iszero\n      iszero\n      eq\n        /* \"Users/eoghan/repos/ScheduledFunctionCallDirectory/src/ScheduledFunctionCallDirectory.sol\":1678:1745  if (functionSuccess != true){... */\n      tag_36\n      jumpi\n        /* \"Users/eoghan/repos/ScheduledFunctionCallDirectory/src/ScheduledFunctionCallDirectory.sol\":1720:1734  revert(\"nope\") */\n      mload(0x40)\n      0x08c379a000000000000000000000000000000000000000000000000000000000\n      dup2\n      mstore\n      0x04\n      add\n      tag_37\n      swap1\n      tag_38\n      jump\t// in\n    tag_37:\n      mload(0x40)\n      dup1\n      swap2\n      sub\n      swap1\n      revert\n        /* \"Users/eoghan/repos/ScheduledFunctionCallDirectory/src/ScheduledFunctionCallDirectory.sol\":1678:1745  if (functionSuccess != true){... */\n    tag_36:\n        /* \"Users/eoghan/repos/ScheduledFunctionCallDirectory/src/ScheduledFunctionCallDirectory.sol\":1789:1796  rewards */\n      0x04\n        /* \"Users/eoghan/repos/ScheduledFunctionCallDirectory/src/ScheduledFunctionCallDirectory.sol\":1789:1807  rewards[callToPop] */\n      0x00\n        /* \"Users/eoghan/repos/ScheduledFunctionCallDirectory/src/ScheduledFunctionCallDirectory.sol\":1797:1806  callToPop */\n      dup10\n        /* \"Users/eoghan/repos/ScheduledFunctionCallDirectory/src/ScheduledFunctionCallDirectory.sol\":1789:1807  rewards[callToPop] */\n      dup2\n      mstore\n      0x20\n      add\n      swap1\n      dup2\n      mstore\n      0x20\n      add\n      0x00\n      keccak256\n        /* \"Users/eoghan/repos/ScheduledFunctionCallDirectory/src/ScheduledFunctionCallDirectory.sol\":1782:1807  delete rewards[callToPop] */\n      0x00\n      swap1\n      sstore\n        /* \"Users/eoghan/repos/ScheduledFunctionCallDirectory/src/ScheduledFunctionCallDirectory.sol\":1824:1834  timestamps */\n      0x03\n        /* \"Users/eoghan/repos/ScheduledFunctionCallDirectory/src/ScheduledFunctionCallDirectory.sol\":1824:1845  timestamps[callToPop] */\n      0x00\n        /* \"Users/eoghan/repos/ScheduledFunctionCallDirectory/src/ScheduledFunctionCallDirectory.sol\":1835:1844  callToPop */\n      dup10\n        /* \"Users/eoghan/repos/ScheduledFunctionCallDirectory/src/ScheduledFunctionCallDirectory.sol\":1824:1845  timestamps[callToPop] */\n      dup2\n      mstore\n      0x20\n      add\n      swap1\n      dup2\n      mstore\n      0x20\n      add\n      0x00\n      keccak256\n        /* \"Users/eoghan/repos/ScheduledFunctionCallDirectory/src/ScheduledFunctionCallDirectory.sol\":1817:1845  delete timestamps[callToPop] */\n      0x00\n      swap1\n      sstore\n        /* \"Users/eoghan/repos/ScheduledFunctionCallDirectory/src/ScheduledFunctionCallDirectory.sol\":1862:1871  addresses */\n      0x02\n        /* \"Users/eoghan/repos/ScheduledFunctionCallDirectory/src/ScheduledFunctionCallDirectory.sol\":1862:1882  addresses[callToPop] */\n      0x00\n        /* \"Users/eoghan/repos/ScheduledFunctionCallDirectory/src/ScheduledFunctionCallDirectory.sol\":1872:1881  callToPop */\n      dup10\n        /* \"Users/eoghan/repos/ScheduledFunctionCallDirectory/src/ScheduledFunctionCallDirectory.sol\":1862:1882  addresses[callToPop] */\n      dup2\n      mstore\n      0x20\n      add\n      swap1\n      dup2\n      mstore\n      0x20\n      add\n      0x00\n      keccak256\n      0x00\n        /* \"Users/eoghan/repos/ScheduledFunctionCallDirectory/src/ScheduledFunctionCallDirectory.sol\":1855:1882  delete addresses[callToPop] */\n      0x0100\n      exp\n      dup2\n      sload\n      swap1\n      0xffffffffffffffffffffffffffffffffffffffff\n      mul\n      not\n      and\n      swap1\n      sstore\n        /* \"Users/eoghan/repos/ScheduledFunctionCallDirectory/src/ScheduledFunctionCallDirectory.sol\":1899:1908  arguments */\n      0x01\n        /* \"Users/eoghan/repos/ScheduledFunctionCallDirectory/src/ScheduledFunctionCallDirectory.sol\":1899:1919  arguments[callToPop] */\n      0x00\n        /* \"Users/eoghan/repos/ScheduledFunctionCallDirectory/src/ScheduledFunctionCallDirectory.sol\":1909:1918  callToPop */\n      dup10\n        /* \"Users/eoghan/repos/ScheduledFunctionCallDirectory/src/ScheduledFunctionCallDirectory.sol\":1899:1919  arguments[callToPop] */\n      dup2\n      mstore\n      0x20\n      add\n      swap1\n      dup2\n      mstore\n      0x20\n      add\n      0x00\n      keccak256\n      0x00\n        /* \"Users/eoghan/repos/ScheduledFunctionCallDirectory/src/ScheduledFunctionCallDirectory.sol\":1892:1919  delete arguments[callToPop] */\n      tag_39\n      swap2\n      swap1\n      tag_40\n      jump\t// in\n    tag_39:\n        /* \"Users/eoghan/repos/ScheduledFunctionCallDirectory/src/ScheduledFunctionCallDirectory.sol\":1936:1942  values */\n      0x05\n        /* \"Users/eoghan/repos/ScheduledFunctionCallDirectory/src/ScheduledFunctionCallDirectory.sol\":1936:1953  values[callToPop] */\n      0x00\n        /* \"Users/eoghan/repos/ScheduledFunctionCallDirectory/src/ScheduledFunctionCallDirectory.sol\":1943:1952  callToPop */\n      dup10\n        /* \"Users/eoghan/repos/ScheduledFunctionCallDirectory/src/ScheduledFunctionCallDirectory.sol\":1936:1953  values[callToPop] */\n      dup2\n      mstore\n      0x20\n      add\n      swap1\n      dup2\n      mstore\n      0x20\n      add\n      0x00\n      keccak256\n        /* \"Users/eoghan/repos/ScheduledFunctionCallDirectory/src/ScheduledFunctionCallDirectory.sol\":1929:1953  delete values[callToPop] */\n      0x00\n      swap1\n      sstore\n        /* \"Users/eoghan/repos/ScheduledFunctionCallDirectory/src/ScheduledFunctionCallDirectory.sol\":2015:2034  bool paymentSuccess */\n      0x00\n        /* \"Users/eoghan/repos/ScheduledFunctionCallDirectory/src/ScheduledFunctionCallDirectory.sol\":2039:2048  recipient */\n      dup8\n        /* \"Users/eoghan/repos/ScheduledFunctionCallDirectory/src/ScheduledFunctionCallDirectory.sol\":2039:2053  recipient.call */\n      0xffffffffffffffffffffffffffffffffffffffff\n      and\n        /* \"Users/eoghan/repos/ScheduledFunctionCallDirectory/src/ScheduledFunctionCallDirectory.sol\":2061:2073  callerReward */\n      dup7\n        /* \"Users/eoghan/repos/ScheduledFunctionCallDirectory/src/ScheduledFunctionCallDirectory.sol\":2039:2078  recipient.call{value: callerReward}(\"\") */\n      mload(0x40)\n      tag_41\n      swap1\n      tag_42\n      jump\t// in\n    tag_41:\n      0x00\n      mload(0x40)\n      dup1\n      dup4\n      sub\n      dup2\n      dup6\n      dup8\n      gas\n      call\n      swap3\n      pop\n      pop\n      pop\n      returndatasize\n      dup1\n      0x00\n      dup2\n      eq\n      tag_45\n      jumpi\n      mload(0x40)\n      swap2\n      pop\n      and(add(returndatasize, 0x3f), not(0x1f))\n      dup3\n      add\n      0x40\n      mstore\n      returndatasize\n      dup3\n      mstore\n      returndatasize\n      0x00\n      0x20\n      dup5\n      add\n      returndatacopy\n      jump(tag_44)\n    tag_45:\n      0x60\n      swap2\n      pop\n    tag_44:\n      pop\n        /* \"Users/eoghan/repos/ScheduledFunctionCallDirectory/src/ScheduledFunctionCallDirectory.sol\":2014:2078  (bool paymentSuccess,) = recipient.call{value: callerReward}(\"\") */\n      pop\n      swap1\n      pop\n        /* \"Users/eoghan/repos/ScheduledFunctionCallDirectory/src/ScheduledFunctionCallDirectory.sol\":2093:2107  paymentSuccess */\n      dup1\n        /* \"Users/eoghan/repos/ScheduledFunctionCallDirectory/src/ScheduledFunctionCallDirectory.sol\":2088:2147  if (!paymentSuccess){... */\n      tag_46\n      jumpi\n        /* \"Users/eoghan/repos/ScheduledFunctionCallDirectory/src/ScheduledFunctionCallDirectory.sol\":2122:2136  revert(\"nope\") */\n      mload(0x40)\n      0x08c379a000000000000000000000000000000000000000000000000000000000\n      dup2\n      mstore\n      0x04\n      add\n      tag_47\n      swap1\n      tag_38\n      jump\t// in\n    tag_47:\n      mload(0x40)\n      dup1\n      swap2\n      sub\n      swap1\n      revert\n        /* \"Users/eoghan/repos/ScheduledFunctionCallDirectory/src/ScheduledFunctionCallDirectory.sol\":2088:2147  if (!paymentSuccess){... */\n    tag_46:\n        /* \"Users/eoghan/repos/ScheduledFunctionCallDirectory/src/ScheduledFunctionCallDirectory.sol\":1370:2153  {... */\n      pop\n      pop\n      pop\n      pop\n      pop\n      pop\n        /* \"Users/eoghan/repos/ScheduledFunctionCallDirectory/src/ScheduledFunctionCallDirectory.sol\":1268:2153  function PopCall(uint256 callToPop, address payable recipient) public IsItTime(timestamps[callToPop]) {... */\n      pop\n      pop\n      pop\n      jump\t// out\n        /* \"Users/eoghan/repos/ScheduledFunctionCallDirectory/src/ScheduledFunctionCallDirectory.sol\":422:443  uint256 public number */\n    tag_13:\n      sload(0x00)\n      dup2\n      jump\t// out\n        /* \"Users/eoghan/repos/ScheduledFunctionCallDirectory/src/ScheduledFunctionCallDirectory.sol\":2159:2261  function CallRewards(uint256 call) public view returns (uint256) {... */\n    tag_20:\n        /* \"Users/eoghan/repos/ScheduledFunctionCallDirectory/src/ScheduledFunctionCallDirectory.sol\":2215:2222  uint256 */\n      0x00\n        /* \"Users/eoghan/repos/ScheduledFunctionCallDirectory/src/ScheduledFunctionCallDirectory.sol\":2241:2248  rewards */\n      0x04\n        /* \"Users/eoghan/repos/ScheduledFunctionCallDirectory/src/ScheduledFunctionCallDirectory.sol\":2241:2254  rewards[call] */\n      0x00\n        /* \"Users/eoghan/repos/ScheduledFunctionCallDirectory/src/ScheduledFunctionCallDirectory.sol\":2249:2253  call */\n      dup4\n        /* \"Users/eoghan/repos/ScheduledFunctionCallDirectory/src/ScheduledFunctionCallDirectory.sol\":2241:2254  rewards[call] */\n      dup2\n      mstore\n      0x20\n      add\n      swap1\n      dup2\n      mstore\n      0x20\n      add\n      0x00\n      keccak256\n      sload\n        /* \"Users/eoghan/repos/ScheduledFunctionCallDirectory/src/ScheduledFunctionCallDirectory.sol\":2234:2254  return rewards[call] */\n      swap1\n      pop\n        /* \"Users/eoghan/repos/ScheduledFunctionCallDirectory/src/ScheduledFunctionCallDirectory.sol\":2159:2261  function CallRewards(uint256 call) public view returns (uint256) {... */\n      swap2\n      swap1\n      pop\n      jump\t// out\n        /* \"Users/eoghan/repos/ScheduledFunctionCallDirectory/src/ScheduledFunctionCallDirectory.sol\":739:1262  function ScheduleCall(address target, uint256 blockNumber, uint256 reward, uint256 value, bytes calldata args) external payable {... */\n    tag_25:\n        /* \"Users/eoghan/repos/ScheduledFunctionCallDirectory/src/ScheduledFunctionCallDirectory.sol\":895:896  1 */\n      0x01\n        /* \"Users/eoghan/repos/ScheduledFunctionCallDirectory/src/ScheduledFunctionCallDirectory.sol\":886:892  number */\n      sload(0x00)\n        /* \"Users/eoghan/repos/ScheduledFunctionCallDirectory/src/ScheduledFunctionCallDirectory.sol\":886:896  number + 1 */\n      tag_50\n      swap2\n      swap1\n      tag_51\n      jump\t// in\n    tag_50:\n        /* \"Users/eoghan/repos/ScheduledFunctionCallDirectory/src/ScheduledFunctionCallDirectory.sol\":877:883  number */\n      0x00\n        /* \"Users/eoghan/repos/ScheduledFunctionCallDirectory/src/ScheduledFunctionCallDirectory.sol\":877:896  number = number + 1 */\n      dup2\n      swap1\n      sstore\n      pop\n        /* \"Users/eoghan/repos/ScheduledFunctionCallDirectory/src/ScheduledFunctionCallDirectory.sol\":933:938  value */\n      dup3\n        /* \"Users/eoghan/repos/ScheduledFunctionCallDirectory/src/ScheduledFunctionCallDirectory.sol\":924:930  reward */\n      dup5\n        /* \"Users/eoghan/repos/ScheduledFunctionCallDirectory/src/ScheduledFunctionCallDirectory.sol\":924:938  reward + value */\n      tag_52\n      swap2\n      swap1\n      tag_51\n      jump\t// in\n    tag_52:\n        /* \"Users/eoghan/repos/ScheduledFunctionCallDirectory/src/ScheduledFunctionCallDirectory.sol\":911:920  msg.value */\n      callvalue\n        /* \"Users/eoghan/repos/ScheduledFunctionCallDirectory/src/ScheduledFunctionCallDirectory.sol\":911:938  msg.value != reward + value */\n      eq\n        /* \"Users/eoghan/repos/ScheduledFunctionCallDirectory/src/ScheduledFunctionCallDirectory.sol\":907:1013  if (msg.value != reward + value){... */\n      tag_53\n      jumpi\n        /* \"Users/eoghan/repos/ScheduledFunctionCallDirectory/src/ScheduledFunctionCallDirectory.sol\":953:1002  revert(\"Sent ether doesnt equal required ether.\") */\n      mload(0x40)\n      0x08c379a000000000000000000000000000000000000000000000000000000000\n      dup2\n      mstore\n      0x04\n      add\n      tag_54\n      swap1\n      tag_55\n      jump\t// in\n    tag_54:\n      mload(0x40)\n      dup1\n      swap2\n      sub\n      swap1\n      revert\n        /* \"Users/eoghan/repos/ScheduledFunctionCallDirectory/src/ScheduledFunctionCallDirectory.sol\":907:1013  if (msg.value != reward + value){... */\n    tag_53:\n        /* \"Users/eoghan/repos/ScheduledFunctionCallDirectory/src/ScheduledFunctionCallDirectory.sol\":1040:1046  reward */\n      dup4\n        /* \"Users/eoghan/repos/ScheduledFunctionCallDirectory/src/ScheduledFunctionCallDirectory.sol\":1022:1029  rewards */\n      0x04\n        /* \"Users/eoghan/repos/ScheduledFunctionCallDirectory/src/ScheduledFunctionCallDirectory.sol\":1022:1037  rewards[number] */\n      0x00\n        /* \"Users/eoghan/repos/ScheduledFunctionCallDirectory/src/ScheduledFunctionCallDirectory.sol\":1030:1036  number */\n      dup1\n      sload\n        /* \"Users/eoghan/repos/ScheduledFunctionCallDirectory/src/ScheduledFunctionCallDirectory.sol\":1022:1037  rewards[number] */\n      dup2\n      mstore\n      0x20\n      add\n      swap1\n      dup2\n      mstore\n      0x20\n      add\n      0x00\n      keccak256\n        /* \"Users/eoghan/repos/ScheduledFunctionCallDirectory/src/ScheduledFunctionCallDirectory.sol\":1022:1046  rewards[number] = reward */\n      dup2\n      swap1\n      sstore\n      pop\n        /* \"Users/eoghan/repos/ScheduledFunctionCallDirectory/src/ScheduledFunctionCallDirectory.sol\":1073:1078  value */\n      dup3\n        /* \"Users/eoghan/repos/ScheduledFunctionCallDirectory/src/ScheduledFunctionCallDirectory.sol\":1056:1062  values */\n      0x05\n        /* \"Users/eoghan/repos/ScheduledFunctionCallDirectory/src/ScheduledFunctionCallDirectory.sol\":1056:1070  values[number] */\n      0x00\n        /* \"Users/eoghan/repos/ScheduledFunctionCallDirectory/src/ScheduledFunctionCallDirectory.sol\":1063:1069  number */\n      dup1\n      sload\n        /* \"Users/eoghan/repos/ScheduledFunctionCallDirectory/src/ScheduledFunctionCallDirectory.sol\":1056:1070  values[number] */\n      dup2\n      mstore\n      0x20\n      add\n      swap1\n      dup2\n      mstore\n      0x20\n      add\n      0x00\n      keccak256\n        /* \"Users/eoghan/repos/ScheduledFunctionCallDirectory/src/ScheduledFunctionCallDirectory.sol\":1056:1078  values[number] = value */\n      dup2\n      swap1\n      sstore\n      pop\n        /* \"Users/eoghan/repos/ScheduledFunctionCallDirectory/src/ScheduledFunctionCallDirectory.sol\":1109:1113  args */\n      dup2\n      dup2\n        /* \"Users/eoghan/repos/ScheduledFunctionCallDirectory/src/ScheduledFunctionCallDirectory.sol\":1089:1098  arguments */\n      0x01\n        /* \"Users/eoghan/repos/ScheduledFunctionCallDirectory/src/ScheduledFunctionCallDirectory.sol\":1089:1106  arguments[number] */\n      0x00\n        /* \"Users/eoghan/repos/ScheduledFunctionCallDirectory/src/ScheduledFunctionCallDirectory.sol\":1099:1105  number */\n      dup1\n      sload\n        /* \"Users/eoghan/repos/ScheduledFunctionCallDirectory/src/ScheduledFunctionCallDirectory.sol\":1089:1106  arguments[number] */\n      dup2\n      mstore\n      0x20\n      add\n      swap1\n      dup2\n      mstore\n      0x20\n      add\n      0x00\n      keccak256\n        /* \"Users/eoghan/repos/ScheduledFunctionCallDirectory/src/ScheduledFunctionCallDirectory.sol\":1089:1113  arguments[number] = args */\n      swap2\n      dup3\n      tag_56\n      swap3\n      swap2\n      swap1\n      tag_57\n      jump\t// in\n    tag_56:\n      pop\n        /* \"Users/eoghan/repos/ScheduledFunctionCallDirectory/src/ScheduledFunctionCallDirectory.sol\":1144:1155  blockNumber */\n      dup5\n        /* \"Users/eoghan/repos/ScheduledFunctionCallDirectory/src/ScheduledFunctionCallDirectory.sol\":1123:1133  timestamps */\n      0x03\n        /* \"Users/eoghan/repos/ScheduledFunctionCallDirectory/src/ScheduledFunctionCallDirectory.sol\":1123:1141  timestamps[number] */\n      0x00\n        /* \"Users/eoghan/repos/ScheduledFunctionCallDirectory/src/ScheduledFunctionCallDirectory.sol\":1134:1140  number */\n      dup1\n      sload\n        /* \"Users/eoghan/repos/ScheduledFunctionCallDirectory/src/ScheduledFunctionCallDirectory.sol\":1123:1141  timestamps[number] */\n      dup2\n      mstore\n      0x20\n      add\n      swap1\n      dup2\n      mstore\n      0x20\n      add\n      0x00\n      keccak256\n        /* \"Users/eoghan/repos/ScheduledFunctionCallDirectory/src/ScheduledFunctionCallDirectory.sol\":1123:1155  timestamps[number] = blockNumber */\n      dup2\n      swap1\n      sstore\n      pop\n        /* \"Users/eoghan/repos/ScheduledFunctionCallDirectory/src/ScheduledFunctionCallDirectory.sol\":1185:1191  target */\n      dup6\n        /* \"Users/eoghan/repos/ScheduledFunctionCallDirectory/src/ScheduledFunctionCallDirectory.sol\":1165:1174  addresses */\n      0x02\n        /* \"Users/eoghan/repos/ScheduledFunctionCallDirectory/src/ScheduledFunctionCallDirectory.sol\":1165:1182  addresses[number] */\n      0x00\n        /* \"Users/eoghan/repos/ScheduledFunctionCallDirectory/src/ScheduledFunctionCallDirectory.sol\":1175:1181  number */\n      dup1\n      sload\n        /* \"Users/eoghan/repos/ScheduledFunctionCallDirectory/src/ScheduledFunctionCallDirectory.sol\":1165:1182  addresses[number] */\n      dup2\n      mstore\n      0x20\n      add\n      swap1\n      dup2\n      mstore\n      0x20\n      add\n      0x00\n      keccak256\n      0x00\n        /* \"Users/eoghan/repos/ScheduledFunctionCallDirectory/src/ScheduledFunctionCallDirectory.sol\":1165:1191  addresses[number] = target */\n      0x0100\n      exp\n      dup2\n      sload\n      dup2\n      0xffffffffffffffffffffffffffffffffffffffff\n      mul\n      not\n      and\n      swap1\n      dup4\n      0xffffffffffffffffffffffffffffffffffffffff\n      and\n      mul\n      or\n      swap1\n      sstore\n      pop\n        /* \"Users/eoghan/repos/ScheduledFunctionCallDirectory/src/ScheduledFunctionCallDirectory.sol\":1207:1255  CallScheduled(blockNumber, reward, number, args) */\n      0x99074690f299eceea2609bc9fae79204a1d8f01fa2c855439afba108d4c5818e\n        /* \"Users/eoghan/repos/ScheduledFunctionCallDirectory/src/ScheduledFunctionCallDirectory.sol\":1221:1232  blockNumber */\n      dup6\n        /* \"Users/eoghan/repos/ScheduledFunctionCallDirectory/src/ScheduledFunctionCallDirectory.sol\":1234:1240  reward */\n      dup6\n        /* \"Users/eoghan/repos/ScheduledFunctionCallDirectory/src/ScheduledFunctionCallDirectory.sol\":1242:1248  number */\n      sload(0x00)\n        /* \"Users/eoghan/repos/ScheduledFunctionCallDirectory/src/ScheduledFunctionCallDirectory.sol\":1250:1254  args */\n      dup6\n      dup6\n        /* \"Users/eoghan/repos/ScheduledFunctionCallDirectory/src/ScheduledFunctionCallDirectory.sol\":1207:1255  CallScheduled(blockNumber, reward, number, args) */\n      mload(0x40)\n      tag_58\n      swap6\n      swap5\n      swap4\n      swap3\n      swap2\n      swap1\n      tag_59\n      jump\t// in\n    tag_58:\n      mload(0x40)\n      dup1\n      swap2\n      sub\n      swap1\n      log1\n        /* \"Users/eoghan/repos/ScheduledFunctionCallDirectory/src/ScheduledFunctionCallDirectory.sol\":739:1262  function ScheduleCall(address target, uint256 blockNumber, uint256 reward, uint256 value, bytes calldata args) external payable {... */\n      pop\n      pop\n      pop\n      pop\n      pop\n      pop\n      jump\t// out\n    tag_40:\n      pop\n      dup1\n      sload\n      tag_60\n      swap1\n      tag_61\n      jump\t// in\n    tag_60:\n      0x00\n      dup3\n      sstore\n      dup1\n      0x1f\n      lt\n      tag_63\n      jumpi\n      pop\n      jump(tag_62)\n    tag_63:\n      0x1f\n      add\n      0x20\n      swap1\n      div\n      swap1\n      0x00\n      mstore\n      keccak256(0x00, 0x20)\n      swap1\n      dup2\n      add\n      swap1\n      tag_64\n      swap2\n      swap1\n      tag_65\n      jump\t// in\n    tag_64:\n    tag_62:\n      pop\n      jump\t// out\n    tag_65:\n    tag_66:\n      dup1\n      dup3\n      gt\n      iszero\n      tag_67\n      jumpi\n      0x00\n      dup2\n      0x00\n      swap1\n      sstore\n      pop\n      0x01\n      add\n      jump(tag_66)\n    tag_67:\n      pop\n      swap1\n      jump\t// out\n        /* \"#utility.yul\":88:205   */\n    tag_69:\n        /* \"#utility.yul\":197:198   */\n      0x00\n        /* \"#utility.yul\":194:195   */\n      dup1\n        /* \"#utility.yul\":187:199   */\n      revert\n        /* \"#utility.yul\":211:328   */\n    tag_70:\n        /* \"#utility.yul\":320:321   */\n      0x00\n        /* \"#utility.yul\":317:318   */\n      dup1\n        /* \"#utility.yul\":310:322   */\n      revert\n        /* \"#utility.yul\":334:411   */\n    tag_71:\n        /* \"#utility.yul\":371:378   */\n      0x00\n        /* \"#utility.yul\":400:405   */\n      dup2\n        /* \"#utility.yul\":389:405   */\n      swap1\n      pop\n        /* \"#utility.yul\":334:411   */\n      swap2\n      swap1\n      pop\n      jump\t// out\n        /* \"#utility.yul\":417:539   */\n    tag_72:\n        /* \"#utility.yul\":490:514   */\n      tag_127\n        /* \"#utility.yul\":508:513   */\n      dup2\n        /* \"#utility.yul\":490:514   */\n      tag_71\n      jump\t// in\n    tag_127:\n        /* \"#utility.yul\":483:488   */\n      dup2\n        /* \"#utility.yul\":480:515   */\n      eq\n        /* \"#utility.yul\":470:533   */\n      tag_128\n      jumpi\n        /* \"#utility.yul\":529:530   */\n      0x00\n        /* \"#utility.yul\":526:527   */\n      dup1\n        /* \"#utility.yul\":519:531   */\n      revert\n        /* \"#utility.yul\":470:533   */\n    tag_128:\n        /* \"#utility.yul\":417:539   */\n      pop\n      jump\t// out\n        /* \"#utility.yul\":545:684   */\n    tag_73:\n        /* \"#utility.yul\":591:596   */\n      0x00\n        /* \"#utility.yul\":629:635   */\n      dup2\n        /* \"#utility.yul\":616:636   */\n      calldataload\n        /* \"#utility.yul\":607:636   */\n      swap1\n      pop\n        /* \"#utility.yul\":645:678   */\n      tag_130\n        /* \"#utility.yul\":672:677   */\n      dup2\n        /* \"#utility.yul\":645:678   */\n      tag_72\n      jump\t// in\n    tag_130:\n        /* \"#utility.yul\":545:684   */\n      swap3\n      swap2\n      pop\n      pop\n      jump\t// out\n        /* \"#utility.yul\":690:816   */\n    tag_74:\n        /* \"#utility.yul\":727:734   */\n      0x00\n        /* \"#utility.yul\":767:809   */\n      0xffffffffffffffffffffffffffffffffffffffff\n        /* \"#utility.yul\":760:765   */\n      dup3\n        /* \"#utility.yul\":756:810   */\n      and\n        /* \"#utility.yul\":745:810   */\n      swap1\n      pop\n        /* \"#utility.yul\":690:816   */\n      swap2\n      swap1\n      pop\n      jump\t// out\n        /* \"#utility.yul\":822:926   */\n    tag_75:\n        /* \"#utility.yul\":867:874   */\n      0x00\n        /* \"#utility.yul\":896:920   */\n      tag_133\n        /* \"#utility.yul\":914:919   */\n      dup3\n        /* \"#utility.yul\":896:920   */\n      tag_74\n      jump\t// in\n    tag_133:\n        /* \"#utility.yul\":885:920   */\n      swap1\n      pop\n        /* \"#utility.yul\":822:926   */\n      swap2\n      swap1\n      pop\n      jump\t// out\n        /* \"#utility.yul\":932:1070   */\n    tag_76:\n        /* \"#utility.yul\":1013:1045   */\n      tag_135\n        /* \"#utility.yul\":1039:1044   */\n      dup2\n        /* \"#utility.yul\":1013:1045   */\n      tag_75\n      jump\t// in\n    tag_135:\n        /* \"#utility.yul\":1006:1011   */\n      dup2\n        /* \"#utility.yul\":1003:1046   */\n      eq\n        /* \"#utility.yul\":993:1064   */\n      tag_136\n      jumpi\n        /* \"#utility.yul\":1060:1061   */\n      0x00\n        /* \"#utility.yul\":1057:1058   */\n      dup1\n        /* \"#utility.yul\":1050:1062   */\n      revert\n        /* \"#utility.yul\":993:1064   */\n    tag_136:\n        /* \"#utility.yul\":932:1070   */\n      pop\n      jump\t// out\n        /* \"#utility.yul\":1076:1231   */\n    tag_77:\n        /* \"#utility.yul\":1130:1135   */\n      0x00\n        /* \"#utility.yul\":1168:1174   */\n      dup2\n        /* \"#utility.yul\":1155:1175   */\n      calldataload\n        /* \"#utility.yul\":1146:1175   */\n      swap1\n      pop\n        /* \"#utility.yul\":1184:1225   */\n      tag_138\n        /* \"#utility.yul\":1219:1224   */\n      dup2\n        /* \"#utility.yul\":1184:1225   */\n      tag_76\n      jump\t// in\n    tag_138:\n        /* \"#utility.yul\":1076:1231   */\n      swap3\n      swap2\n      pop\n      pop\n      jump\t// out\n        /* \"#utility.yul\":1237:1727   */\n    tag_9:\n        /* \"#utility.yul\":1313:1319   */\n      0x00\n        /* \"#utility.yul\":1321:1327   */\n      dup1\n        /* \"#utility.yul\":1370:1372   */\n      0x40\n        /* \"#utility.yul\":1358:1367   */\n      dup4\n        /* \"#utility.yul\":1349:1356   */\n      dup6\n        /* \"#utility.yul\":1345:1368   */\n      sub\n        /* \"#utility.yul\":1341:1373   */\n      slt\n        /* \"#utility.yul\":1338:1457   */\n      iszero\n      tag_140\n      jumpi\n        /* \"#utility.yul\":1376:1455   */\n      tag_141\n      tag_69\n      jump\t// in\n    tag_141:\n        /* \"#utility.yul\":1338:1457   */\n    tag_140:\n        /* \"#utility.yul\":1496:1497   */\n      0x00\n        /* \"#utility.yul\":1521:1574   */\n      tag_142\n        /* \"#utility.yul\":1566:1573   */\n      dup6\n        /* \"#utility.yul\":1557:1563   */\n      dup3\n        /* \"#utility.yul\":1546:1555   */\n      dup7\n        /* \"#utility.yul\":1542:1564   */\n      add\n        /* \"#utility.yul\":1521:1574   */\n      tag_73\n      jump\t// in\n    tag_142:\n        /* \"#utility.yul\":1511:1574   */\n      swap3\n      pop\n        /* \"#utility.yul\":1467:1584   */\n      pop\n        /* \"#utility.yul\":1623:1625   */\n      0x20\n        /* \"#utility.yul\":1649:1710   */\n      tag_143\n        /* \"#utility.yul\":1702:1709   */\n      dup6\n        /* \"#utility.yul\":1693:1699   */\n      dup3\n        /* \"#utility.yul\":1682:1691   */\n      dup7\n        /* \"#utility.yul\":1678:1700   */\n      add\n        /* \"#utility.yul\":1649:1710   */\n      tag_77\n      jump\t// in\n    tag_143:\n        /* \"#utility.yul\":1639:1710   */\n      swap2\n      pop\n        /* \"#utility.yul\":1594:1720   */\n      pop\n        /* \"#utility.yul\":1237:1727   */\n      swap3\n      pop\n      swap3\n      swap1\n      pop\n      jump\t// out\n        /* \"#utility.yul\":1733:1851   */\n    tag_78:\n        /* \"#utility.yul\":1820:1844   */\n      tag_145\n        /* \"#utility.yul\":1838:1843   */\n      dup2\n        /* \"#utility.yul\":1820:1844   */\n      tag_71\n      jump\t// in\n    tag_145:\n        /* \"#utility.yul\":1815:1818   */\n      dup3\n        /* \"#utility.yul\":1808:1845   */\n      mstore\n        /* \"#utility.yul\":1733:1851   */\n      pop\n      pop\n      jump\t// out\n        /* \"#utility.yul\":1857:2079   */\n    tag_15:\n        /* \"#utility.yul\":1950:1954   */\n      0x00\n        /* \"#utility.yul\":1988:1990   */\n      0x20\n        /* \"#utility.yul\":1977:1986   */\n      dup3\n        /* \"#utility.yul\":1973:1991   */\n      add\n        /* \"#utility.yul\":1965:1991   */\n      swap1\n      pop\n        /* \"#utility.yul\":2001:2072   */\n      tag_147\n        /* \"#utility.yul\":2069:2070   */\n      0x00\n        /* \"#utility.yul\":2058:2067   */\n      dup4\n        /* \"#utility.yul\":2054:2071   */\n      add\n        /* \"#utility.yul\":2045:2051   */\n      dup5\n        /* \"#utility.yul\":2001:2072   */\n      tag_78\n      jump\t// in\n    tag_147:\n        /* \"#utility.yul\":1857:2079   */\n      swap3\n      swap2\n      pop\n      pop\n      jump\t// out\n        /* \"#utility.yul\":2085:2414   */\n    tag_19:\n        /* \"#utility.yul\":2144:2150   */\n      0x00\n        /* \"#utility.yul\":2193:2195   */\n      0x20\n        /* \"#utility.yul\":2181:2190   */\n      dup3\n        /* \"#utility.yul\":2172:2179   */\n      dup5\n        /* \"#utility.yul\":2168:2191   */\n      sub\n        /* \"#utility.yul\":2164:2196   */\n      slt\n        /* \"#utility.yul\":2161:2280   */\n      iszero\n      tag_149\n      jumpi\n        /* \"#utility.yul\":2199:2278   */\n      tag_150\n      tag_69\n      jump\t// in\n    tag_150:\n        /* \"#utility.yul\":2161:2280   */\n    tag_149:\n        /* \"#utility.yul\":2319:2320   */\n      0x00\n        /* \"#utility.yul\":2344:2397   */\n      tag_151\n        /* \"#utility.yul\":2389:2396   */\n      dup5\n        /* \"#utility.yul\":2380:2386   */\n      dup3\n        /* \"#utility.yul\":2369:2378   */\n      dup6\n        /* \"#utility.yul\":2365:2387   */\n      add\n        /* \"#utility.yul\":2344:2397   */\n      tag_73\n      jump\t// in\n    tag_151:\n        /* \"#utility.yul\":2334:2397   */\n      swap2\n      pop\n        /* \"#utility.yul\":2290:2407   */\n      pop\n        /* \"#utility.yul\":2085:2414   */\n      swap3\n      swap2\n      pop\n      pop\n      jump\t// out\n        /* \"#utility.yul\":2420:2516   */\n    tag_79:\n        /* \"#utility.yul\":2457:2464   */\n      0x00\n        /* \"#utility.yul\":2486:2510   */\n      tag_153\n        /* \"#utility.yul\":2504:2509   */\n      dup3\n        /* \"#utility.yul\":2486:2510   */\n      tag_74\n      jump\t// in\n    tag_153:\n        /* \"#utility.yul\":2475:2510   */\n      swap1\n      pop\n        /* \"#utility.yul\":2420:2516   */\n      swap2\n      swap1\n      pop\n      jump\t// out\n        /* \"#utility.yul\":2522:2644   */\n    tag_80:\n        /* \"#utility.yul\":2595:2619   */\n      tag_155\n        /* \"#utility.yul\":2613:2618   */\n      dup2\n        /* \"#utility.yul\":2595:2619   */\n      tag_79\n      jump\t// in\n    tag_155:\n        /* \"#utility.yul\":2588:2593   */\n      dup2\n        /* \"#utility.yul\":2585:2620   */\n      eq\n        /* \"#utility.yul\":2575:2638   */\n      tag_156\n      jumpi\n        /* \"#utility.yul\":2634:2635   */\n      0x00\n        /* \"#utility.yul\":2631:2632   */\n      dup1\n        /* \"#utility.yul\":2624:2636   */\n      revert\n        /* \"#utility.yul\":2575:2638   */\n    tag_156:\n        /* \"#utility.yul\":2522:2644   */\n      pop\n      jump\t// out\n        /* \"#utility.yul\":2650:2789   */\n    tag_81:\n        /* \"#utility.yul\":2696:2701   */\n      0x00\n        /* \"#utility.yul\":2734:2740   */\n      dup2\n        /* \"#utility.yul\":2721:2741   */\n      calldataload\n        /* \"#utility.yul\":2712:2741   */\n      swap1\n      pop\n        /* \"#utility.yul\":2750:2783   */\n      tag_158\n        /* \"#utility.yul\":2777:2782   */\n      dup2\n        /* \"#utility.yul\":2750:2783   */\n      tag_80\n      jump\t// in\n    tag_158:\n        /* \"#utility.yul\":2650:2789   */\n      swap3\n      swap2\n      pop\n      pop\n      jump\t// out\n        /* \"#utility.yul\":2795:2912   */\n    tag_82:\n        /* \"#utility.yul\":2904:2905   */\n      0x00\n        /* \"#utility.yul\":2901:2902   */\n      dup1\n        /* \"#utility.yul\":2894:2906   */\n      revert\n        /* \"#utility.yul\":2918:3035   */\n    tag_83:\n        /* \"#utility.yul\":3027:3028   */\n      0x00\n        /* \"#utility.yul\":3024:3025   */\n      dup1\n        /* \"#utility.yul\":3017:3029   */\n      revert\n        /* \"#utility.yul\":3041:3158   */\n    tag_84:\n        /* \"#utility.yul\":3150:3151   */\n      0x00\n        /* \"#utility.yul\":3147:3148   */\n      dup1\n        /* \"#utility.yul\":3140:3152   */\n      revert\n        /* \"#utility.yul\":3177:3729   */\n    tag_85:\n        /* \"#utility.yul\":3234:3242   */\n      0x00\n        /* \"#utility.yul\":3244:3250   */\n      dup1\n        /* \"#utility.yul\":3294:3297   */\n      dup4\n        /* \"#utility.yul\":3287:3291   */\n      0x1f\n        /* \"#utility.yul\":3279:3285   */\n      dup5\n        /* \"#utility.yul\":3275:3292   */\n      add\n        /* \"#utility.yul\":3271:3298   */\n      slt\n        /* \"#utility.yul\":3261:3383   */\n      tag_163\n      jumpi\n        /* \"#utility.yul\":3302:3381   */\n      tag_164\n      tag_82\n      jump\t// in\n    tag_164:\n        /* \"#utility.yul\":3261:3383   */\n    tag_163:\n        /* \"#utility.yul\":3415:3421   */\n      dup3\n        /* \"#utility.yul\":3402:3422   */\n      calldataload\n        /* \"#utility.yul\":3392:3422   */\n      swap1\n      pop\n        /* \"#utility.yul\":3445:3463   */\n      0xffffffffffffffff\n        /* \"#utility.yul\":3437:3443   */\n      dup2\n        /* \"#utility.yul\":3434:3464   */\n      gt\n        /* \"#utility.yul\":3431:3548   */\n      iszero\n      tag_165\n      jumpi\n        /* \"#utility.yul\":3467:3546   */\n      tag_166\n      tag_83\n      jump\t// in\n    tag_166:\n        /* \"#utility.yul\":3431:3548   */\n    tag_165:\n        /* \"#utility.yul\":3581:3585   */\n      0x20\n        /* \"#utility.yul\":3573:3579   */\n      dup4\n        /* \"#utility.yul\":3569:3586   */\n      add\n        /* \"#utility.yul\":3557:3586   */\n      swap2\n      pop\n        /* \"#utility.yul\":3635:3638   */\n      dup4\n        /* \"#utility.yul\":3627:3631   */\n      0x01\n        /* \"#utility.yul\":3619:3625   */\n      dup3\n        /* \"#utility.yul\":3615:3632   */\n      mul\n        /* \"#utility.yul\":3605:3613   */\n      dup4\n        /* \"#utility.yul\":3601:3633   */\n      add\n        /* \"#utility.yul\":3598:3639   */\n      gt\n        /* \"#utility.yul\":3595:3723   */\n      iszero\n      tag_167\n      jumpi\n        /* \"#utility.yul\":3642:3721   */\n      tag_168\n      tag_84\n      jump\t// in\n    tag_168:\n        /* \"#utility.yul\":3595:3723   */\n    tag_167:\n        /* \"#utility.yul\":3177:3729   */\n      swap3\n      pop\n      swap3\n      swap1\n      pop\n      jump\t// out\n        /* \"#utility.yul\":3735:4844   */\n    tag_24:\n        /* \"#utility.yul\":3841:3847   */\n      0x00\n        /* \"#utility.yul\":3849:3855   */\n      dup1\n        /* \"#utility.yul\":3857:3863   */\n      0x00\n        /* \"#utility.yul\":3865:3871   */\n      dup1\n        /* \"#utility.yul\":3873:3879   */\n      0x00\n        /* \"#utility.yul\":3881:3887   */\n      dup1\n        /* \"#utility.yul\":3930:3933   */\n      0xa0\n        /* \"#utility.yul\":3918:3927   */\n      dup8\n        /* \"#utility.yul\":3909:3916   */\n      dup10\n        /* \"#utility.yul\":3905:3928   */\n      sub\n        /* \"#utility.yul\":3901:3934   */\n      slt\n        /* \"#utility.yul\":3898:4018   */\n      iszero\n      tag_170\n      jumpi\n        /* \"#utility.yul\":3937:4016   */\n      tag_171\n      tag_69\n      jump\t// in\n    tag_171:\n        /* \"#utility.yul\":3898:4018   */\n    tag_170:\n        /* \"#utility.yul\":4057:4058   */\n      0x00\n        /* \"#utility.yul\":4082:4135   */\n      tag_172\n        /* \"#utility.yul\":4127:4134   */\n      dup10\n        /* \"#utility.yul\":4118:4124   */\n      dup3\n        /* \"#utility.yul\":4107:4116   */\n      dup11\n        /* \"#utility.yul\":4103:4125   */\n      add\n        /* \"#utility.yul\":4082:4135   */\n      tag_81\n      jump\t// in\n    tag_172:\n        /* \"#utility.yul\":4072:4135   */\n      swap7\n      pop\n        /* \"#utility.yul\":4028:4145   */\n      pop\n        /* \"#utility.yul\":4184:4186   */\n      0x20\n        /* \"#utility.yul\":4210:4263   */\n      tag_173\n        /* \"#utility.yul\":4255:4262   */\n      dup10\n        /* \"#utility.yul\":4246:4252   */\n      dup3\n        /* \"#utility.yul\":4235:4244   */\n      dup11\n        /* \"#utility.yul\":4231:4253   */\n      add\n        /* \"#utility.yul\":4210:4263   */\n      tag_73\n      jump\t// in\n    tag_173:\n        /* \"#utility.yul\":4200:4263   */\n      swap6\n      pop\n        /* \"#utility.yul\":4155:4273   */\n      pop\n        /* \"#utility.yul\":4312:4314   */\n      0x40\n        /* \"#utility.yul\":4338:4391   */\n      tag_174\n        /* \"#utility.yul\":4383:4390   */\n      dup10\n        /* \"#utility.yul\":4374:4380   */\n      dup3\n        /* \"#utility.yul\":4363:4372   */\n      dup11\n        /* \"#utility.yul\":4359:4381   */\n      add\n        /* \"#utility.yul\":4338:4391   */\n      tag_73\n      jump\t// in\n    tag_174:\n        /* \"#utility.yul\":4328:4391   */\n      swap5\n      pop\n        /* \"#utility.yul\":4283:4401   */\n      pop\n        /* \"#utility.yul\":4440:4442   */\n      0x60\n        /* \"#utility.yul\":4466:4519   */\n      tag_175\n        /* \"#utility.yul\":4511:4518   */\n      dup10\n        /* \"#utility.yul\":4502:4508   */\n      dup3\n        /* \"#utility.yul\":4491:4500   */\n      dup11\n        /* \"#utility.yul\":4487:4509   */\n      add\n        /* \"#utility.yul\":4466:4519   */\n      tag_73\n      jump\t// in\n    tag_175:\n        /* \"#utility.yul\":4456:4519   */\n      swap4\n      pop\n        /* \"#utility.yul\":4411:4529   */\n      pop\n        /* \"#utility.yul\":4596:4599   */\n      0x80\n        /* \"#utility.yul\":4585:4594   */\n      dup8\n        /* \"#utility.yul\":4581:4600   */\n      add\n        /* \"#utility.yul\":4568:4601   */\n      calldataload\n        /* \"#utility.yul\":4628:4646   */\n      0xffffffffffffffff\n        /* \"#utility.yul\":4620:4626   */\n      dup2\n        /* \"#utility.yul\":4617:4647   */\n      gt\n        /* \"#utility.yul\":4614:4731   */\n      iszero\n      tag_176\n      jumpi\n        /* \"#utility.yul\":4650:4729   */\n      tag_177\n      tag_70\n      jump\t// in\n    tag_177:\n        /* \"#utility.yul\":4614:4731   */\n    tag_176:\n        /* \"#utility.yul\":4763:4827   */\n      tag_178\n        /* \"#utility.yul\":4819:4826   */\n      dup10\n        /* \"#utility.yul\":4810:4816   */\n      dup3\n        /* \"#utility.yul\":4799:4808   */\n      dup11\n        /* \"#utility.yul\":4795:4817   */\n      add\n        /* \"#utility.yul\":4763:4827   */\n      tag_85\n      jump\t// in\n    tag_178:\n        /* \"#utility.yul\":4745:4827   */\n      swap3\n      pop\n      swap3\n      pop\n        /* \"#utility.yul\":4539:4837   */\n      pop\n        /* \"#utility.yul\":3735:4844   */\n      swap3\n      swap6\n      pop\n      swap3\n      swap6\n      pop\n      swap3\n      swap6\n      jump\t// out\n        /* \"#utility.yul\":4850:5019   */\n    tag_86:\n        /* \"#utility.yul\":4934:4945   */\n      0x00\n        /* \"#utility.yul\":4968:4974   */\n      dup3\n        /* \"#utility.yul\":4963:4966   */\n      dup3\n        /* \"#utility.yul\":4956:4975   */\n      mstore\n        /* \"#utility.yul\":5008:5012   */\n      0x20\n        /* \"#utility.yul\":5003:5006   */\n      dup3\n        /* \"#utility.yul\":4999:5013   */\n      add\n        /* \"#utility.yul\":4984:5013   */\n      swap1\n      pop\n        /* \"#utility.yul\":4850:5019   */\n      swap3\n      swap2\n      pop\n      pop\n      jump\t// out\n        /* \"#utility.yul\":5025:5200   */\n    tag_87:\n        /* \"#utility.yul\":5165:5192   */\n      0x43616c6c2069736e2774207363686564756c6564207965742e00000000000000\n        /* \"#utility.yul\":5161:5162   */\n      0x00\n        /* \"#utility.yul\":5153:5159   */\n      dup3\n        /* \"#utility.yul\":5149:5163   */\n      add\n        /* \"#utility.yul\":5142:5193   */\n      mstore\n        /* \"#utility.yul\":5025:5200   */\n      pop\n      jump\t// out\n        /* \"#utility.yul\":5206:5572   */\n    tag_88:\n        /* \"#utility.yul\":5348:5351   */\n      0x00\n        /* \"#utility.yul\":5369:5436   */\n      tag_182\n        /* \"#utility.yul\":5433:5435   */\n      0x19\n        /* \"#utility.yul\":5428:5431   */\n      dup4\n        /* \"#utility.yul\":5369:5436   */\n      tag_86\n      jump\t// in\n    tag_182:\n        /* \"#utility.yul\":5362:5436   */\n      swap2\n      pop\n        /* \"#utility.yul\":5445:5538   */\n      tag_183\n        /* \"#utility.yul\":5534:5537   */\n      dup3\n        /* \"#utility.yul\":5445:5538   */\n      tag_87\n      jump\t// in\n    tag_183:\n        /* \"#utility.yul\":5563:5565   */\n      0x20\n        /* \"#utility.yul\":5558:5561   */\n      dup3\n        /* \"#utility.yul\":5554:5566   */\n      add\n        /* \"#utility.yul\":5547:5566   */\n      swap1\n      pop\n        /* \"#utility.yul\":5206:5572   */\n      swap2\n      swap1\n      pop\n      jump\t// out\n        /* \"#utility.yul\":5578:5997   */\n    tag_29:\n        /* \"#utility.yul\":5744:5748   */\n      0x00\n        /* \"#utility.yul\":5782:5784   */\n      0x20\n        /* \"#utility.yul\":5771:5780   */\n      dup3\n        /* \"#utility.yul\":5767:5785   */\n      add\n        /* \"#utility.yul\":5759:5785   */\n      swap1\n      pop\n        /* \"#utility.yul\":5831:5840   */\n      dup2\n        /* \"#utility.yul\":5825:5829   */\n      dup2\n        /* \"#utility.yul\":5821:5841   */\n      sub\n        /* \"#utility.yul\":5817:5818   */\n      0x00\n        /* \"#utility.yul\":5806:5815   */\n      dup4\n        /* \"#utility.yul\":5802:5819   */\n      add\n        /* \"#utility.yul\":5795:5842   */\n      mstore\n        /* \"#utility.yul\":5859:5990   */\n      tag_185\n        /* \"#utility.yul\":5985:5989   */\n      dup2\n        /* \"#utility.yul\":5859:5990   */\n      tag_88\n      jump\t// in\n    tag_185:\n        /* \"#utility.yul\":5851:5990   */\n      swap1\n      pop\n        /* \"#utility.yul\":5578:5997   */\n      swap2\n      swap1\n      pop\n      jump\t// out\n        /* \"#utility.yul\":6003:6183   */\n    tag_89:\n        /* \"#utility.yul\":6051:6128   */\n      0x4e487b7100000000000000000000000000000000000000000000000000000000\n        /* \"#utility.yul\":6048:6049   */\n      0x00\n        /* \"#utility.yul\":6041:6129   */\n      mstore\n        /* \"#utility.yul\":6148:6152   */\n      0x22\n        /* \"#utility.yul\":6145:6146   */\n      0x04\n        /* \"#utility.yul\":6138:6153   */\n      mstore\n        /* \"#utility.yul\":6172:6176   */\n      0x24\n        /* \"#utility.yul\":6169:6170   */\n      0x00\n        /* \"#utility.yul\":6162:6177   */\n      revert\n        /* \"#utility.yul\":6189:6509   */\n    tag_61:\n        /* \"#utility.yul\":6233:6239   */\n      0x00\n        /* \"#utility.yul\":6270:6271   */\n      0x02\n        /* \"#utility.yul\":6264:6268   */\n      dup3\n        /* \"#utility.yul\":6260:6272   */\n      div\n        /* \"#utility.yul\":6250:6272   */\n      swap1\n      pop\n        /* \"#utility.yul\":6317:6318   */\n      0x01\n        /* \"#utility.yul\":6311:6315   */\n      dup3\n        /* \"#utility.yul\":6307:6319   */\n      and\n        /* \"#utility.yul\":6338:6356   */\n      dup1\n        /* \"#utility.yul\":6328:6409   */\n      tag_188\n      jumpi\n        /* \"#utility.yul\":6394:6398   */\n      0x7f\n        /* \"#utility.yul\":6386:6392   */\n      dup3\n        /* \"#utility.yul\":6382:6399   */\n      and\n        /* \"#utility.yul\":6372:6399   */\n      swap2\n      pop\n        /* \"#utility.yul\":6328:6409   */\n    tag_188:\n        /* \"#utility.yul\":6456:6458   */\n      0x20\n        /* \"#utility.yul\":6448:6454   */\n      dup3\n        /* \"#utility.yul\":6445:6459   */\n      lt\n        /* \"#utility.yul\":6425:6443   */\n      dup2\n        /* \"#utility.yul\":6422:6460   */\n      sub\n        /* \"#utility.yul\":6419:6503   */\n      tag_189\n      jumpi\n        /* \"#utility.yul\":6475:6493   */\n      tag_190\n      tag_89\n      jump\t// in\n    tag_190:\n        /* \"#utility.yul\":6419:6503   */\n    tag_189:\n        /* \"#utility.yul\":6240:6509   */\n      pop\n        /* \"#utility.yul\":6189:6509   */\n      swap2\n      swap1\n      pop\n      jump\t// out\n        /* \"#utility.yul\":6515:6662   */\n    tag_90:\n        /* \"#utility.yul\":6616:6627   */\n      0x00\n        /* \"#utility.yul\":6653:6656   */\n      dup2\n        /* \"#utility.yul\":6638:6656   */\n      swap1\n      pop\n        /* \"#utility.yul\":6515:6662   */\n      swap3\n      swap2\n      pop\n      pop\n      jump\t// out\n        /* \"#utility.yul\":6668:6812   */\n    tag_91:\n        /* \"#utility.yul\":6720:6724   */\n      0x00\n        /* \"#utility.yul\":6743:6746   */\n      dup2\n        /* \"#utility.yul\":6735:6746   */\n      swap1\n      pop\n        /* \"#utility.yul\":6766:6769   */\n      dup2\n        /* \"#utility.yul\":6763:6764   */\n      0x00\n        /* \"#utility.yul\":6756:6770   */\n      mstore\n        /* \"#utility.yul\":6800:6804   */\n      0x20\n        /* \"#utility.yul\":6797:6798   */\n      0x00\n        /* \"#utility.yul\":6787:6805   */\n      keccak256\n        /* \"#utility.yul\":6779:6805   */\n      swap1\n      pop\n        /* \"#utility.yul\":6668:6812   */\n      swap2\n      swap1\n      pop\n      jump\t// out\n        /* \"#utility.yul\":6840:7718   */\n    tag_92:\n        /* \"#utility.yul\":6945:6948   */\n      0x00\n        /* \"#utility.yul\":6982:6987   */\n      dup2\n        /* \"#utility.yul\":6976:6988   */\n      sload\n        /* \"#utility.yul\":7011:7047   */\n      tag_194\n        /* \"#utility.yul\":7037:7046   */\n      dup2\n        /* \"#utility.yul\":7011:7047   */\n      tag_61\n      jump\t// in\n    tag_194:\n        /* \"#utility.yul\":7063:7151   */\n      tag_195\n        /* \"#utility.yul\":7144:7150   */\n      dup2\n        /* \"#utility.yul\":7139:7142   */\n      dup7\n        /* \"#utility.yul\":7063:7151   */\n      tag_90\n      jump\t// in\n    tag_195:\n        /* \"#utility.yul\":7056:7151   */\n      swap5\n      pop\n        /* \"#utility.yul\":7182:7183   */\n      0x01\n        /* \"#utility.yul\":7171:7180   */\n      dup3\n        /* \"#utility.yul\":7167:7184   */\n      and\n        /* \"#utility.yul\":7198:7199   */\n      0x00\n        /* \"#utility.yul\":7193:7359   */\n      dup2\n      eq\n      tag_197\n      jumpi\n        /* \"#utility.yul\":7373:7374   */\n      0x01\n        /* \"#utility.yul\":7368:7712   */\n      dup2\n      eq\n      tag_198\n      jumpi\n        /* \"#utility.yul\":7160:7712   */\n      jump(tag_196)\n        /* \"#utility.yul\":7193:7359   */\n    tag_197:\n        /* \"#utility.yul\":7277:7281   */\n      0xff\n        /* \"#utility.yul\":7273:7282   */\n      not\n        /* \"#utility.yul\":7262:7271   */\n      dup4\n        /* \"#utility.yul\":7258:7283   */\n      and\n        /* \"#utility.yul\":7253:7256   */\n      dup7\n        /* \"#utility.yul\":7246:7284   */\n      mstore\n        /* \"#utility.yul\":7339:7345   */\n      dup2\n        /* \"#utility.yul\":7332:7346   */\n      iszero\n        /* \"#utility.yul\":7325:7347   */\n      iszero\n        /* \"#utility.yul\":7317:7323   */\n      dup3\n        /* \"#utility.yul\":7313:7348   */\n      mul\n        /* \"#utility.yul\":7308:7311   */\n      dup7\n        /* \"#utility.yul\":7304:7349   */\n      add\n        /* \"#utility.yul\":7297:7349   */\n      swap4\n      pop\n        /* \"#utility.yul\":7193:7359   */\n      jump(tag_196)\n        /* \"#utility.yul\":7368:7712   */\n    tag_198:\n        /* \"#utility.yul\":7435:7476   */\n      tag_199\n        /* \"#utility.yul\":7470:7475   */\n      dup6\n        /* \"#utility.yul\":7435:7476   */\n      tag_91\n      jump\t// in\n    tag_199:\n        /* \"#utility.yul\":7498:7499   */\n      0x00\n        /* \"#utility.yul\":7512:7666   */\n    tag_200:\n        /* \"#utility.yul\":7526:7532   */\n      dup4\n        /* \"#utility.yul\":7523:7524   */\n      dup2\n        /* \"#utility.yul\":7520:7533   */\n      lt\n        /* \"#utility.yul\":7512:7666   */\n      iszero\n      tag_202\n      jumpi\n        /* \"#utility.yul\":7600:7607   */\n      dup2\n        /* \"#utility.yul\":7594:7608   */\n      sload\n        /* \"#utility.yul\":7590:7591   */\n      dup2\n        /* \"#utility.yul\":7585:7588   */\n      dup10\n        /* \"#utility.yul\":7581:7592   */\n      add\n        /* \"#utility.yul\":7574:7609   */\n      mstore\n        /* \"#utility.yul\":7650:7651   */\n      0x01\n        /* \"#utility.yul\":7641:7648   */\n      dup3\n        /* \"#utility.yul\":7637:7652   */\n      add\n        /* \"#utility.yul\":7626:7652   */\n      swap2\n      pop\n        /* \"#utility.yul\":7548:7552   */\n      0x20\n        /* \"#utility.yul\":7545:7546   */\n      dup2\n        /* \"#utility.yul\":7541:7553   */\n      add\n        /* \"#utility.yul\":7536:7553   */\n      swap1\n      pop\n        /* \"#utility.yul\":7512:7666   */\n      jump(tag_200)\n    tag_202:\n        /* \"#utility.yul\":7695:7701   */\n      dup4\n        /* \"#utility.yul\":7690:7693   */\n      dup9\n        /* \"#utility.yul\":7686:7702   */\n      add\n        /* \"#utility.yul\":7679:7702   */\n      swap6\n      pop\n        /* \"#utility.yul\":7375:7712   */\n      pop\n      pop\n        /* \"#utility.yul\":7160:7712   */\n    tag_196:\n      pop\n        /* \"#utility.yul\":6949:7718   */\n      pop\n      pop\n        /* \"#utility.yul\":6840:7718   */\n      swap3\n      swap2\n      pop\n      pop\n      jump\t// out\n        /* \"#utility.yul\":7724:7997   */\n    tag_32:\n        /* \"#utility.yul\":7855:7858   */\n      0x00\n        /* \"#utility.yul\":7877:7971   */\n      tag_204\n        /* \"#utility.yul\":7967:7970   */\n      dup3\n        /* \"#utility.yul\":7958:7964   */\n      dup5\n        /* \"#utility.yul\":7877:7971   */\n      tag_92\n      jump\t// in\n    tag_204:\n        /* \"#utility.yul\":7870:7971   */\n      swap2\n      pop\n        /* \"#utility.yul\":7988:7991   */\n      dup2\n        /* \"#utility.yul\":7981:7991   */\n      swap1\n      pop\n        /* \"#utility.yul\":7724:7997   */\n      swap3\n      swap2\n      pop\n      pop\n      jump\t// out\n        /* \"#utility.yul\":8003:8157   */\n    tag_93:\n        /* \"#utility.yul\":8143:8149   */\n      0x6e6f706500000000000000000000000000000000000000000000000000000000\n        /* \"#utility.yul\":8139:8140   */\n      0x00\n        /* \"#utility.yul\":8131:8137   */\n      dup3\n        /* \"#utility.yul\":8127:8141   */\n      add\n        /* \"#utility.yul\":8120:8150   */\n      mstore\n        /* \"#utility.yul\":8003:8157   */\n      pop\n      jump\t// out\n        /* \"#utility.yul\":8163:8528   */\n    tag_94:\n        /* \"#utility.yul\":8305:8308   */\n      0x00\n        /* \"#utility.yul\":8326:8392   */\n      tag_207\n        /* \"#utility.yul\":8390:8391   */\n      0x04\n        /* \"#utility.yul\":8385:8388   */\n      dup4\n        /* \"#utility.yul\":8326:8392   */\n      tag_86\n      jump\t// in\n    tag_207:\n        /* \"#utility.yul\":8319:8392   */\n      swap2\n      pop\n        /* \"#utility.yul\":8401:8494   */\n      tag_208\n        /* \"#utility.yul\":8490:8493   */\n      dup3\n        /* \"#utility.yul\":8401:8494   */\n      tag_93\n      jump\t// in\n    tag_208:\n        /* \"#utility.yul\":8519:8521   */\n      0x20\n        /* \"#utility.yul\":8514:8517   */\n      dup3\n        /* \"#utility.yul\":8510:8522   */\n      add\n        /* \"#utility.yul\":8503:8522   */\n      swap1\n      pop\n        /* \"#utility.yul\":8163:8528   */\n      swap2\n      swap1\n      pop\n      jump\t// out\n        /* \"#utility.yul\":8534:8953   */\n    tag_38:\n        /* \"#utility.yul\":8700:8704   */\n      0x00\n        /* \"#utility.yul\":8738:8740   */\n      0x20\n        /* \"#utility.yul\":8727:8736   */\n      dup3\n        /* \"#utility.yul\":8723:8741   */\n      add\n        /* \"#utility.yul\":8715:8741   */\n      swap1\n      pop\n        /* \"#utility.yul\":8787:8796   */\n      dup2\n        /* \"#utility.yul\":8781:8785   */\n      dup2\n        /* \"#utility.yul\":8777:8797   */\n      sub\n        /* \"#utility.yul\":8773:8774   */\n      0x00\n        /* \"#utility.yul\":8762:8771   */\n      dup4\n        /* \"#utility.yul\":8758:8775   */\n      add\n        /* \"#utility.yul\":8751:8798   */\n      mstore\n        /* \"#utility.yul\":8815:8946   */\n      tag_210\n        /* \"#utility.yul\":8941:8945   */\n      dup2\n        /* \"#utility.yul\":8815:8946   */\n      tag_94\n      jump\t// in\n    tag_210:\n        /* \"#utility.yul\":8807:8946   */\n      swap1\n      pop\n        /* \"#utility.yul\":8534:8953   */\n      swap2\n      swap1\n      pop\n      jump\t// out\n        /* \"#utility.yul\":8959:9073   */\n    tag_95:\n      pop\n      jump\t// out\n        /* \"#utility.yul\":9079:9477   */\n    tag_96:\n        /* \"#utility.yul\":9238:9241   */\n      0x00\n        /* \"#utility.yul\":9259:9342   */\n      tag_213\n        /* \"#utility.yul\":9340:9341   */\n      0x00\n        /* \"#utility.yul\":9335:9338   */\n      dup4\n        /* \"#utility.yul\":9259:9342   */\n      tag_90\n      jump\t// in\n    tag_213:\n        /* \"#utility.yul\":9252:9342   */\n      swap2\n      pop\n        /* \"#utility.yul\":9351:9444   */\n      tag_214\n        /* \"#utility.yul\":9440:9443   */\n      dup3\n        /* \"#utility.yul\":9351:9444   */\n      tag_95\n      jump\t// in\n    tag_214:\n        /* \"#utility.yul\":9469:9470   */\n      0x00\n        /* \"#utility.yul\":9464:9467   */\n      dup3\n        /* \"#utility.yul\":9460:9471   */\n      add\n        /* \"#utility.yul\":9453:9471   */\n      swap1\n      pop\n        /* \"#utility.yul\":9079:9477   */\n      swap2\n      swap1\n      pop\n      jump\t// out\n        /* \"#utility.yul\":9483:9862   */\n    tag_42:\n        /* \"#utility.yul\":9667:9670   */\n      0x00\n        /* \"#utility.yul\":9689:9836   */\n      tag_216\n        /* \"#utility.yul\":9832:9835   */\n      dup3\n        /* \"#utility.yul\":9689:9836   */\n      tag_96\n      jump\t// in\n    tag_216:\n        /* \"#utility.yul\":9682:9836   */\n      swap2\n      pop\n        /* \"#utility.yul\":9853:9856   */\n      dup2\n        /* \"#utility.yul\":9846:9856   */\n      swap1\n      pop\n        /* \"#utility.yul\":9483:9862   */\n      swap2\n      swap1\n      pop\n      jump\t// out\n        /* \"#utility.yul\":9868:10048   */\n    tag_97:\n        /* \"#utility.yul\":9916:9993   */\n      0x4e487b7100000000000000000000000000000000000000000000000000000000\n        /* \"#utility.yul\":9913:9914   */\n      0x00\n        /* \"#utility.yul\":9906:9994   */\n      mstore\n        /* \"#utility.yul\":10013:10017   */\n      0x11\n        /* \"#utility.yul\":10010:10011   */\n      0x04\n        /* \"#utility.yul\":10003:10018   */\n      mstore\n        /* \"#utility.yul\":10037:10041   */\n      0x24\n        /* \"#utility.yul\":10034:10035   */\n      0x00\n        /* \"#utility.yul\":10027:10042   */\n      revert\n        /* \"#utility.yul\":10054:10245   */\n    tag_51:\n        /* \"#utility.yul\":10094:10097   */\n      0x00\n        /* \"#utility.yul\":10113:10133   */\n      tag_219\n        /* \"#utility.yul\":10131:10132   */\n      dup3\n        /* \"#utility.yul\":10113:10133   */\n      tag_71\n      jump\t// in\n    tag_219:\n        /* \"#utility.yul\":10108:10133   */\n      swap2\n      pop\n        /* \"#utility.yul\":10147:10167   */\n      tag_220\n        /* \"#utility.yul\":10165:10166   */\n      dup4\n        /* \"#utility.yul\":10147:10167   */\n      tag_71\n      jump\t// in\n    tag_220:\n        /* \"#utility.yul\":10142:10167   */\n      swap3\n      pop\n        /* \"#utility.yul\":10190:10191   */\n      dup3\n        /* \"#utility.yul\":10187:10188   */\n      dup3\n        /* \"#utility.yul\":10183:10192   */\n      add\n        /* \"#utility.yul\":10176:10192   */\n      swap1\n      pop\n        /* \"#utility.yul\":10211:10214   */\n      dup1\n        /* \"#utility.yul\":10208:10209   */\n      dup3\n        /* \"#utility.yul\":10205:10215   */\n      gt\n        /* \"#utility.yul\":10202:10238   */\n      iszero\n      tag_221\n      jumpi\n        /* \"#utility.yul\":10218:10236   */\n      tag_222\n      tag_97\n      jump\t// in\n    tag_222:\n        /* \"#utility.yul\":10202:10238   */\n    tag_221:\n        /* \"#utility.yul\":10054:10245   */\n      swap3\n      swap2\n      pop\n      pop\n      jump\t// out\n        /* \"#utility.yul\":10251:10477   */\n    tag_98:\n        /* \"#utility.yul\":10391:10425   */\n      0x53656e7420657468657220646f65736e7420657175616c207265717569726564\n        /* \"#utility.yul\":10387:10388   */\n      0x00\n        /* \"#utility.yul\":10379:10385   */\n      dup3\n        /* \"#utility.yul\":10375:10389   */\n      add\n        /* \"#utility.yul\":10368:10426   */\n      mstore\n        /* \"#utility.yul\":10460:10469   */\n      0x2065746865722e00000000000000000000000000000000000000000000000000\n        /* \"#utility.yul\":10455:10457   */\n      0x20\n        /* \"#utility.yul\":10447:10453   */\n      dup3\n        /* \"#utility.yul\":10443:10458   */\n      add\n        /* \"#utility.yul\":10436:10470   */\n      mstore\n        /* \"#utility.yul\":10251:10477   */\n      pop\n      jump\t// out\n        /* \"#utility.yul\":10483:10849   */\n    tag_99:\n        /* \"#utility.yul\":10625:10628   */\n      0x00\n        /* \"#utility.yul\":10646:10713   */\n      tag_225\n        /* \"#utility.yul\":10710:10712   */\n      0x27\n        /* \"#utility.yul\":10705:10708   */\n      dup4\n        /* \"#utility.yul\":10646:10713   */\n      tag_86\n      jump\t// in\n    tag_225:\n        /* \"#utility.yul\":10639:10713   */\n      swap2\n      pop\n        /* \"#utility.yul\":10722:10815   */\n      tag_226\n        /* \"#utility.yul\":10811:10814   */\n      dup3\n        /* \"#utility.yul\":10722:10815   */\n      tag_98\n      jump\t// in\n    tag_226:\n        /* \"#utility.yul\":10840:10842   */\n      0x40\n        /* \"#utility.yul\":10835:10838   */\n      dup3\n        /* \"#utility.yul\":10831:10843   */\n      add\n        /* \"#utility.yul\":10824:10843   */\n      swap1\n      pop\n        /* \"#utility.yul\":10483:10849   */\n      swap2\n      swap1\n      pop\n      jump\t// out\n        /* \"#utility.yul\":10855:11274   */\n    tag_55:\n        /* \"#utility.yul\":11021:11025   */\n      0x00\n        /* \"#utility.yul\":11059:11061   */\n      0x20\n        /* \"#utility.yul\":11048:11057   */\n      dup3\n        /* \"#utility.yul\":11044:11062   */\n      add\n        /* \"#utility.yul\":11036:11062   */\n      swap1\n      pop\n        /* \"#utility.yul\":11108:11117   */\n      dup2\n        /* \"#utility.yul\":11102:11106   */\n      dup2\n        /* \"#utility.yul\":11098:11118   */\n      sub\n        /* \"#utility.yul\":11094:11095   */\n      0x00\n        /* \"#utility.yul\":11083:11092   */\n      dup4\n        /* \"#utility.yul\":11079:11096   */\n      add\n        /* \"#utility.yul\":11072:11119   */\n      mstore\n        /* \"#utility.yul\":11136:11267   */\n      tag_228\n        /* \"#utility.yul\":11262:11266   */\n      dup2\n        /* \"#utility.yul\":11136:11267   */\n      tag_99\n      jump\t// in\n    tag_228:\n        /* \"#utility.yul\":11128:11267   */\n      swap1\n      pop\n        /* \"#utility.yul\":10855:11274   */\n      swap2\n      swap1\n      pop\n      jump\t// out\n        /* \"#utility.yul\":11280:11376   */\n    tag_100:\n        /* \"#utility.yul\":11338:11344   */\n      0x00\n        /* \"#utility.yul\":11366:11369   */\n      dup3\n        /* \"#utility.yul\":11356:11369   */\n      swap1\n      pop\n        /* \"#utility.yul\":11280:11376   */\n      swap3\n      swap2\n      pop\n      pop\n      jump\t// out\n        /* \"#utility.yul\":11382:11562   */\n    tag_101:\n        /* \"#utility.yul\":11430:11507   */\n      0x4e487b7100000000000000000000000000000000000000000000000000000000\n        /* \"#utility.yul\":11427:11428   */\n      0x00\n        /* \"#utility.yul\":11420:11508   */\n      mstore\n        /* \"#utility.yul\":11527:11531   */\n      0x41\n        /* \"#utility.yul\":11524:11525   */\n      0x04\n        /* \"#utility.yul\":11517:11532   */\n      mstore\n        /* \"#utility.yul\":11551:11555   */\n      0x24\n        /* \"#utility.yul\":11548:11549   */\n      0x00\n        /* \"#utility.yul\":11541:11556   */\n      revert\n        /* \"#utility.yul\":11568:11708   */\n    tag_102:\n        /* \"#utility.yul\":11616:11620   */\n      0x00\n        /* \"#utility.yul\":11639:11642   */\n      dup2\n        /* \"#utility.yul\":11631:11642   */\n      swap1\n      pop\n        /* \"#utility.yul\":11662:11665   */\n      dup2\n        /* \"#utility.yul\":11659:11660   */\n      0x00\n        /* \"#utility.yul\":11652:11666   */\n      mstore\n        /* \"#utility.yul\":11696:11700   */\n      0x20\n        /* \"#utility.yul\":11693:11694   */\n      0x00\n        /* \"#utility.yul\":11683:11701   */\n      keccak256\n        /* \"#utility.yul\":11675:11701   */\n      swap1\n      pop\n        /* \"#utility.yul\":11568:11708   */\n      swap2\n      swap1\n      pop\n      jump\t// out\n        /* \"#utility.yul\":11714:11807   */\n    tag_103:\n        /* \"#utility.yul\":11751:11757   */\n      0x00\n        /* \"#utility.yul\":11798:11800   */\n      0x20\n        /* \"#utility.yul\":11793:11795   */\n      0x1f\n        /* \"#utility.yul\":11786:11791   */\n      dup4\n        /* \"#utility.yul\":11782:11796   */\n      add\n        /* \"#utility.yul\":11778:11801   */\n      div\n        /* \"#utility.yul\":11768:11801   */\n      swap1\n      pop\n        /* \"#utility.yul\":11714:11807   */\n      swap2\n      swap1\n      pop\n      jump\t// out\n        /* \"#utility.yul\":11813:11920   */\n    tag_104:\n        /* \"#utility.yul\":11857:11865   */\n      0x00\n        /* \"#utility.yul\":11907:11912   */\n      dup3\n        /* \"#utility.yul\":11901:11905   */\n      dup3\n        /* \"#utility.yul\":11897:11913   */\n      shl\n        /* \"#utility.yul\":11876:11913   */\n      swap1\n      pop\n        /* \"#utility.yul\":11813:11920   */\n      swap3\n      swap2\n      pop\n      pop\n      jump\t// out\n        /* \"#utility.yul\":11926:12319   */\n    tag_105:\n        /* \"#utility.yul\":11995:12001   */\n      0x00\n        /* \"#utility.yul\":12045:12046   */\n      0x08\n        /* \"#utility.yul\":12033:12043   */\n      dup4\n        /* \"#utility.yul\":12029:12047   */\n      mul\n        /* \"#utility.yul\":12068:12165   */\n      tag_235\n        /* \"#utility.yul\":12098:12164   */\n      0xffffffffffffffffffffffffffffffffffffffffffffffffffffffffffffffff\n        /* \"#utility.yul\":12087:12096   */\n      dup3\n        /* \"#utility.yul\":12068:12165   */\n      tag_104\n      jump\t// in\n    tag_235:\n        /* \"#utility.yul\":12186:12225   */\n      tag_236\n        /* \"#utility.yul\":12216:12224   */\n      dup7\n        /* \"#utility.yul\":12205:12214   */\n      dup4\n        /* \"#utility.yul\":12186:12225   */\n      tag_104\n      jump\t// in\n    tag_236:\n        /* \"#utility.yul\":12174:12225   */\n      swap6\n      pop\n        /* \"#utility.yul\":12258:12262   */\n      dup1\n        /* \"#utility.yul\":12254:12263   */\n      not\n        /* \"#utility.yul\":12247:12252   */\n      dup5\n        /* \"#utility.yul\":12243:12264   */\n      and\n        /* \"#utility.yul\":12234:12264   */\n      swap4\n      pop\n        /* \"#utility.yul\":12307:12311   */\n      dup1\n        /* \"#utility.yul\":12297:12305   */\n      dup7\n        /* \"#utility.yul\":12293:12312   */\n      and\n        /* \"#utility.yul\":12286:12291   */\n      dup5\n        /* \"#utility.yul\":12283:12313   */\n      or\n        /* \"#utility.yul\":12273:12313   */\n      swap3\n      pop\n        /* \"#utility.yul\":12002:12319   */\n      pop\n      pop\n        /* \"#utility.yul\":11926:12319   */\n      swap4\n      swap3\n      pop\n      pop\n      pop\n      jump\t// out\n        /* \"#utility.yul\":12325:12385   */\n    tag_106:\n        /* \"#utility.yul\":12353:12356   */\n      0x00\n        /* \"#utility.yul\":12374:12379   */\n      dup2\n        /* \"#utility.yul\":12367:12379   */\n      swap1\n      pop\n        /* \"#utility.yul\":12325:12385   */\n      swap2\n      swap1\n      pop\n      jump\t// out\n        /* \"#utility.yul\":12391:12533   */\n    tag_107:\n        /* \"#utility.yul\":12441:12450   */\n      0x00\n        /* \"#utility.yul\":12474:12527   */\n      tag_239\n        /* \"#utility.yul\":12492:12526   */\n      tag_240\n        /* \"#utility.yul\":12501:12525   */\n      tag_241\n        /* \"#utility.yul\":12519:12524   */\n      dup5\n        /* \"#utility.yul\":12501:12525   */\n      tag_71\n      jump\t// in\n    tag_241:\n        /* \"#utility.yul\":12492:12526   */\n      tag_106\n      jump\t// in\n    tag_240:\n        /* \"#utility.yul\":12474:12527   */\n      tag_71\n      jump\t// in\n    tag_239:\n        /* \"#utility.yul\":12461:12527   */\n      swap1\n      pop\n        /* \"#utility.yul\":12391:12533   */\n      swap2\n      swap1\n      pop\n      jump\t// out\n        /* \"#utility.yul\":12539:12614   */\n    tag_108:\n        /* \"#utility.yul\":12582:12585   */\n      0x00\n        /* \"#utility.yul\":12603:12608   */\n      dup2\n        /* \"#utility.yul\":12596:12608   */\n      swap1\n      pop\n        /* \"#utility.yul\":12539:12614   */\n      swap2\n      swap1\n      pop\n      jump\t// out\n        /* \"#utility.yul\":12620:12889   */\n    tag_109:\n        /* \"#utility.yul\":12730:12769   */\n      tag_244\n        /* \"#utility.yul\":12761:12768   */\n      dup4\n        /* \"#utility.yul\":12730:12769   */\n      tag_107\n      jump\t// in\n    tag_244:\n        /* \"#utility.yul\":12791:12882   */\n      tag_245\n        /* \"#utility.yul\":12840:12881   */\n      tag_246\n        /* \"#utility.yul\":12864:12880   */\n      dup3\n        /* \"#utility.yul\":12840:12881   */\n      tag_108\n      jump\t// in\n    tag_246:\n        /* \"#utility.yul\":12832:12838   */\n      dup5\n        /* \"#utility.yul\":12825:12829   */\n      dup5\n        /* \"#utility.yul\":12819:12830   */\n      sload\n        /* \"#utility.yul\":12791:12882   */\n      tag_105\n      jump\t// in\n    tag_245:\n        /* \"#utility.yul\":12785:12789   */\n      dup3\n        /* \"#utility.yul\":12778:12883   */\n      sstore\n        /* \"#utility.yul\":12696:12889   */\n      pop\n        /* \"#utility.yul\":12620:12889   */\n      pop\n      pop\n      pop\n      jump\t// out\n        /* \"#utility.yul\":12895:12968   */\n    tag_110:\n        /* \"#utility.yul\":12940:12943   */\n      0x00\n        /* \"#utility.yul\":12895:12968   */\n      swap1\n      jump\t// out\n        /* \"#utility.yul\":12974:13163   */\n    tag_111:\n        /* \"#utility.yul\":13051:13083   */\n      tag_249\n      tag_110\n      jump\t// in\n    tag_249:\n        /* \"#utility.yul\":13092:13157   */\n      tag_250\n        /* \"#utility.yul\":13150:13156   */\n      dup2\n        /* \"#utility.yul\":13142:13148   */\n      dup5\n        /* \"#utility.yul\":13136:13140   */\n      dup5\n        /* \"#utility.yul\":13092:13157   */\n      tag_109\n      jump\t// in\n    tag_250:\n        /* \"#utility.yul\":13027:13163   */\n      pop\n        /* \"#utility.yul\":12974:13163   */\n      pop\n      pop\n      jump\t// out\n        /* \"#utility.yul\":13169:13355   */\n    tag_112:\n        /* \"#utility.yul\":13229:13349   */\n    tag_252:\n        /* \"#utility.yul\":13246:13249   */\n      dup2\n        /* \"#utility.yul\":13239:13244   */\n      dup2\n        /* \"#utility.yul\":13236:13250   */\n      lt\n        /* \"#utility.yul\":13229:13349   */\n      iszero\n      tag_254\n      jumpi\n        /* \"#utility.yul\":13300:13339   */\n      tag_255\n        /* \"#utility.yul\":13337:13338   */\n      0x00\n        /* \"#utility.yul\":13330:13335   */\n      dup3\n        /* \"#utility.yul\":13300:13339   */\n      tag_111\n      jump\t// in\n    tag_255:\n        /* \"#utility.yul\":13273:13274   */\n      0x01\n        /* \"#utility.yul\":13266:13271   */\n      dup2\n        /* \"#utility.yul\":13262:13275   */\n      add\n        /* \"#utility.yul\":13253:13275   */\n      swap1\n      pop\n        /* \"#utility.yul\":13229:13349   */\n      jump(tag_252)\n    tag_254:\n        /* \"#utility.yul\":13169:13355   */\n      pop\n      pop\n      jump\t// out\n        /* \"#utility.yul\":13361:13902   */\n    tag_113:\n        /* \"#utility.yul\":13461:13463   */\n      0x1f\n        /* \"#utility.yul\":13456:13459   */\n      dup3\n        /* \"#utility.yul\":13453:13464   */\n      gt\n        /* \"#utility.yul\":13450:13895   */\n      iszero\n      tag_257\n      jumpi\n        /* \"#utility.yul\":13495:13532   */\n      tag_258\n        /* \"#utility.yul\":13526:13531   */\n      dup2\n        /* \"#utility.yul\":13495:13532   */\n      tag_102\n      jump\t// in\n    tag_258:\n        /* \"#utility.yul\":13578:13607   */\n      tag_259\n        /* \"#utility.yul\":13596:13606   */\n      dup5\n        /* \"#utility.yul\":13578:13607   */\n      tag_103\n      jump\t// in\n    tag_259:\n        /* \"#utility.yul\":13568:13576   */\n      dup2\n        /* \"#utility.yul\":13564:13608   */\n      add\n        /* \"#utility.yul\":13761:13763   */\n      0x20\n        /* \"#utility.yul\":13749:13759   */\n      dup6\n        /* \"#utility.yul\":13746:13764   */\n      lt\n        /* \"#utility.yul\":13743:13792   */\n      iszero\n      tag_260\n      jumpi\n        /* \"#utility.yul\":13782:13790   */\n      dup2\n        /* \"#utility.yul\":13767:13790   */\n      swap1\n      pop\n        /* \"#utility.yul\":13743:13792   */\n    tag_260:\n        /* \"#utility.yul\":13805:13885   */\n      tag_261\n        /* \"#utility.yul\":13861:13883   */\n      tag_262\n        /* \"#utility.yul\":13879:13882   */\n      dup6\n        /* \"#utility.yul\":13861:13883   */\n      tag_103\n      jump\t// in\n    tag_262:\n        /* \"#utility.yul\":13851:13859   */\n      dup4\n        /* \"#utility.yul\":13847:13884   */\n      add\n        /* \"#utility.yul\":13834:13845   */\n      dup3\n        /* \"#utility.yul\":13805:13885   */\n      tag_112\n      jump\t// in\n    tag_261:\n        /* \"#utility.yul\":13465:13895   */\n      pop\n      pop\n        /* \"#utility.yul\":13450:13895   */\n    tag_257:\n        /* \"#utility.yul\":13361:13902   */\n      pop\n      pop\n      pop\n      jump\t// out\n        /* \"#utility.yul\":13908:14025   */\n    tag_114:\n        /* \"#utility.yul\":13962:13970   */\n      0x00\n        /* \"#utility.yul\":14012:14017   */\n      dup3\n        /* \"#utility.yul\":14006:14010   */\n      dup3\n        /* \"#utility.yul\":14002:14018   */\n      shr\n        /* \"#utility.yul\":13981:14018   */\n      swap1\n      pop\n        /* \"#utility.yul\":13908:14025   */\n      swap3\n      swap2\n      pop\n      pop\n      jump\t// out\n        /* \"#utility.yul\":14031:14200   */\n    tag_115:\n        /* \"#utility.yul\":14075:14081   */\n      0x00\n        /* \"#utility.yul\":14108:14159   */\n      tag_265\n        /* \"#utility.yul\":14156:14157   */\n      0x00\n        /* \"#utility.yul\":14152:14158   */\n      not\n        /* \"#utility.yul\":14144:14149   */\n      dup5\n        /* \"#utility.yul\":14141:14142   */\n      0x08\n        /* \"#utility.yul\":14137:14150   */\n      mul\n        /* \"#utility.yul\":14108:14159   */\n      tag_114\n      jump\t// in\n    tag_265:\n        /* \"#utility.yul\":14104:14160   */\n      not\n        /* \"#utility.yul\":14189:14193   */\n      dup1\n        /* \"#utility.yul\":14183:14187   */\n      dup4\n        /* \"#utility.yul\":14179:14194   */\n      and\n        /* \"#utility.yul\":14169:14194   */\n      swap2\n      pop\n        /* \"#utility.yul\":14082:14200   */\n      pop\n        /* \"#utility.yul\":14031:14200   */\n      swap3\n      swap2\n      pop\n      pop\n      jump\t// out\n        /* \"#utility.yul\":14205:14500   */\n    tag_116:\n        /* \"#utility.yul\":14281:14285   */\n      0x00\n        /* \"#utility.yul\":14427:14456   */\n      tag_267\n        /* \"#utility.yul\":14452:14455   */\n      dup4\n        /* \"#utility.yul\":14446:14450   */\n      dup4\n        /* \"#utility.yul\":14427:14456   */\n      tag_115\n      jump\t// in\n    tag_267:\n        /* \"#utility.yul\":14419:14456   */\n      swap2\n      pop\n        /* \"#utility.yul\":14489:14492   */\n      dup3\n        /* \"#utility.yul\":14486:14487   */\n      0x02\n        /* \"#utility.yul\":14482:14493   */\n      mul\n        /* \"#utility.yul\":14476:14480   */\n      dup3\n        /* \"#utility.yul\":14473:14494   */\n      or\n        /* \"#utility.yul\":14465:14494   */\n      swap1\n      pop\n        /* \"#utility.yul\":14205:14500   */\n      swap3\n      swap2\n      pop\n      pop\n      jump\t// out\n        /* \"#utility.yul\":14505:15903   */\n    tag_57:\n        /* \"#utility.yul\":14627:14670   */\n      tag_269\n        /* \"#utility.yul\":14666:14669   */\n      dup4\n        /* \"#utility.yul\":14661:14664   */\n      dup4\n        /* \"#utility.yul\":14627:14670   */\n      tag_100\n      jump\t// in\n    tag_269:\n        /* \"#utility.yul\":14735:14753   */\n      0xffffffffffffffff\n        /* \"#utility.yul\":14727:14733   */\n      dup2\n        /* \"#utility.yul\":14724:14754   */\n      gt\n        /* \"#utility.yul\":14721:14777   */\n      iszero\n      tag_270\n      jumpi\n        /* \"#utility.yul\":14757:14775   */\n      tag_271\n      tag_101\n      jump\t// in\n    tag_271:\n        /* \"#utility.yul\":14721:14777   */\n    tag_270:\n        /* \"#utility.yul\":14801:14839   */\n      tag_272\n        /* \"#utility.yul\":14833:14837   */\n      dup3\n        /* \"#utility.yul\":14827:14838   */\n      sload\n        /* \"#utility.yul\":14801:14839   */\n      tag_61\n      jump\t// in\n    tag_272:\n        /* \"#utility.yul\":14886:14952   */\n      tag_273\n        /* \"#utility.yul\":14945:14951   */\n      dup3\n        /* \"#utility.yul\":14937:14943   */\n      dup3\n        /* \"#utility.yul\":14931:14935   */\n      dup6\n        /* \"#utility.yul\":14886:14952   */\n      tag_113\n      jump\t// in\n    tag_273:\n        /* \"#utility.yul\":14979:14980   */\n      0x00\n        /* \"#utility.yul\":15008:15010   */\n      0x1f\n        /* \"#utility.yul\":15000:15006   */\n      dup4\n        /* \"#utility.yul\":14997:15011   */\n      gt\n        /* \"#utility.yul\":15025:15026   */\n      0x01\n        /* \"#utility.yul\":15020:15651   */\n      dup2\n      eq\n      tag_275\n      jumpi\n        /* \"#utility.yul\":15695:15696   */\n      0x00\n        /* \"#utility.yul\":15712:15718   */\n      dup5\n        /* \"#utility.yul\":15709:15793   */\n      iszero\n      tag_276\n      jumpi\n        /* \"#utility.yul\":15768:15777   */\n      dup3\n        /* \"#utility.yul\":15763:15766   */\n      dup8\n        /* \"#utility.yul\":15759:15778   */\n      add\n        /* \"#utility.yul\":15746:15779   */\n      calldataload\n        /* \"#utility.yul\":15737:15779   */\n      swap1\n      pop\n        /* \"#utility.yul\":15709:15793   */\n    tag_276:\n        /* \"#utility.yul\":15819:15886   */\n      tag_277\n        /* \"#utility.yul\":15879:15885   */\n      dup6\n        /* \"#utility.yul\":15872:15877   */\n      dup3\n        /* \"#utility.yul\":15819:15886   */\n      tag_116\n      jump\t// in\n    tag_277:\n        /* \"#utility.yul\":15813:15817   */\n      dup7\n        /* \"#utility.yul\":15806:15887   */\n      sstore\n        /* \"#utility.yul\":15668:15897   */\n      pop\n        /* \"#utility.yul\":14990:15897   */\n      jump(tag_274)\n        /* \"#utility.yul\":15020:15651   */\n    tag_275:\n        /* \"#utility.yul\":15072:15076   */\n      0x1f\n        /* \"#utility.yul\":15068:15077   */\n      not\n        /* \"#utility.yul\":15060:15066   */\n      dup5\n        /* \"#utility.yul\":15056:15078   */\n      and\n        /* \"#utility.yul\":15106:15142   */\n      tag_278\n        /* \"#utility.yul\":15137:15141   */\n      dup7\n        /* \"#utility.yul\":15106:15142   */\n      tag_102\n      jump\t// in\n    tag_278:\n        /* \"#utility.yul\":15164:15165   */\n      0x00\n        /* \"#utility.yul\":15178:15393   */\n    tag_279:\n        /* \"#utility.yul\":15192:15199   */\n      dup3\n        /* \"#utility.yul\":15189:15190   */\n      dup2\n        /* \"#utility.yul\":15186:15200   */\n      lt\n        /* \"#utility.yul\":15178:15393   */\n      iszero\n      tag_281\n      jumpi\n        /* \"#utility.yul\":15278:15287   */\n      dup5\n        /* \"#utility.yul\":15273:15276   */\n      dup10\n        /* \"#utility.yul\":15269:15288   */\n      add\n        /* \"#utility.yul\":15256:15289   */\n      calldataload\n        /* \"#utility.yul\":15248:15254   */\n      dup3\n        /* \"#utility.yul\":15241:15290   */\n      sstore\n        /* \"#utility.yul\":15329:15330   */\n      0x01\n        /* \"#utility.yul\":15321:15327   */\n      dup3\n        /* \"#utility.yul\":15317:15331   */\n      add\n        /* \"#utility.yul\":15307:15331   */\n      swap2\n      pop\n        /* \"#utility.yul\":15376:15378   */\n      0x20\n        /* \"#utility.yul\":15365:15374   */\n      dup6\n        /* \"#utility.yul\":15361:15379   */\n      add\n        /* \"#utility.yul\":15348:15379   */\n      swap5\n      pop\n        /* \"#utility.yul\":15215:15219   */\n      0x20\n        /* \"#utility.yul\":15212:15213   */\n      dup2\n        /* \"#utility.yul\":15208:15220   */\n      add\n        /* \"#utility.yul\":15203:15220   */\n      swap1\n      pop\n        /* \"#utility.yul\":15178:15393   */\n      jump(tag_279)\n    tag_281:\n        /* \"#utility.yul\":15421:15427   */\n      dup7\n        /* \"#utility.yul\":15412:15419   */\n      dup4\n        /* \"#utility.yul\":15409:15428   */\n      lt\n        /* \"#utility.yul\":15406:15592   */\n      iszero\n      tag_282\n      jumpi\n        /* \"#utility.yul\":15486:15495   */\n      dup5\n        /* \"#utility.yul\":15481:15484   */\n      dup10\n        /* \"#utility.yul\":15477:15496   */\n      add\n        /* \"#utility.yul\":15464:15497   */\n      calldataload\n        /* \"#utility.yul\":15529:15577   */\n      tag_283\n        /* \"#utility.yul\":15571:15575   */\n      0x1f\n        /* \"#utility.yul\":15563:15569   */\n      dup10\n        /* \"#utility.yul\":15559:15576   */\n      and\n        /* \"#utility.yul\":15548:15557   */\n      dup3\n        /* \"#utility.yul\":15529:15577   */\n      tag_115\n      jump\t// in\n    tag_283:\n        /* \"#utility.yul\":15521:15527   */\n      dup4\n        /* \"#utility.yul\":15514:15578   */\n      sstore\n        /* \"#utility.yul\":15429:15592   */\n      pop\n        /* \"#utility.yul\":15406:15592   */\n    tag_282:\n        /* \"#utility.yul\":15638:15639   */\n      0x01\n        /* \"#utility.yul\":15634:15635   */\n      0x02\n        /* \"#utility.yul\":15626:15632   */\n      dup9\n        /* \"#utility.yul\":15622:15636   */\n      mul\n        /* \"#utility.yul\":15618:15640   */\n      add\n        /* \"#utility.yul\":15612:15616   */\n      dup9\n        /* \"#utility.yul\":15605:15641   */\n      sstore\n        /* \"#utility.yul\":15027:15651   */\n      pop\n      pop\n      pop\n        /* \"#utility.yul\":14990:15897   */\n    tag_274:\n      pop\n        /* \"#utility.yul\":14602:15903   */\n      pop\n      pop\n      pop\n        /* \"#utility.yul\":14505:15903   */\n      pop\n      pop\n      pop\n      jump\t// out\n        /* \"#utility.yul\":15909:16077   */\n    tag_117:\n        /* \"#utility.yul\":15992:16003   */\n      0x00\n        /* \"#utility.yul\":16026:16032   */\n      dup3\n        /* \"#utility.yul\":16021:16024   */\n      dup3\n        /* \"#utility.yul\":16014:16033   */\n      mstore\n        /* \"#utility.yul\":16066:16070   */\n      0x20\n        /* \"#utility.yul\":16061:16064   */\n      dup3\n        /* \"#utility.yul\":16057:16071   */\n      add\n        /* \"#utility.yul\":16042:16071   */\n      swap1\n      pop\n        /* \"#utility.yul\":15909:16077   */\n      swap3\n      swap2\n      pop\n      pop\n      jump\t// out\n        /* \"#utility.yul\":16083:16229   */\n    tag_118:\n        /* \"#utility.yul\":16180:16186   */\n      dup3\n        /* \"#utility.yul\":16175:16178   */\n      dup2\n        /* \"#utility.yul\":16170:16173   */\n      dup4\n        /* \"#utility.yul\":16157:16187   */\n      calldatacopy\n        /* \"#utility.yul\":16221:16222   */\n      0x00\n        /* \"#utility.yul\":16212:16218   */\n      dup4\n        /* \"#utility.yul\":16207:16210   */\n      dup4\n        /* \"#utility.yul\":16203:16219   */\n      add\n        /* \"#utility.yul\":16196:16223   */\n      mstore\n        /* \"#utility.yul\":16083:16229   */\n      pop\n      pop\n      pop\n      jump\t// out\n        /* \"#utility.yul\":16235:16337   */\n    tag_119:\n        /* \"#utility.yul\":16276:16282   */\n      0x00\n        /* \"#utility.yul\":16327:16329   */\n      0x1f\n        /* \"#utility.yul\":16323:16330   */\n      not\n        /* \"#utility.yul\":16318:16320   */\n      0x1f\n        /* \"#utility.yul\":16311:16316   */\n      dup4\n        /* \"#utility.yul\":16307:16321   */\n      add\n        /* \"#utility.yul\":16303:16331   */\n      and\n        /* \"#utility.yul\":16293:16331   */\n      swap1\n      pop\n        /* \"#utility.yul\":16235:16337   */\n      swap2\n      swap1\n      pop\n      jump\t// out\n        /* \"#utility.yul\":16365:16679   */\n    tag_120:\n        /* \"#utility.yul\":16461:16464   */\n      0x00\n        /* \"#utility.yul\":16482:16552   */\n      tag_288\n        /* \"#utility.yul\":16545:16551   */\n      dup4\n        /* \"#utility.yul\":16540:16543   */\n      dup6\n        /* \"#utility.yul\":16482:16552   */\n      tag_117\n      jump\t// in\n    tag_288:\n        /* \"#utility.yul\":16475:16552   */\n      swap4\n      pop\n        /* \"#utility.yul\":16562:16618   */\n      tag_289\n        /* \"#utility.yul\":16611:16617   */\n      dup4\n        /* \"#utility.yul\":16606:16609   */\n      dup6\n        /* \"#utility.yul\":16599:16604   */\n      dup5\n        /* \"#utility.yul\":16562:16618   */\n      tag_118\n      jump\t// in\n    tag_289:\n        /* \"#utility.yul\":16643:16672   */\n      tag_290\n        /* \"#utility.yul\":16665:16671   */\n      dup4\n        /* \"#utility.yul\":16643:16672   */\n      tag_119\n      jump\t// in\n    tag_290:\n        /* \"#utility.yul\":16638:16641   */\n      dup5\n        /* \"#utility.yul\":16634:16673   */\n      add\n        /* \"#utility.yul\":16627:16673   */\n      swap1\n      pop\n        /* \"#utility.yul\":16365:16679   */\n      swap4\n      swap3\n      pop\n      pop\n      pop\n      jump\t// out\n        /* \"#utility.yul\":16685:17345   */\n    tag_59:\n        /* \"#utility.yul\":16890:16894   */\n      0x00\n        /* \"#utility.yul\":16928:16931   */\n      0x80\n        /* \"#utility.yul\":16917:16926   */\n      dup3\n        /* \"#utility.yul\":16913:16932   */\n      add\n        /* \"#utility.yul\":16905:16932   */\n      swap1\n      pop\n        /* \"#utility.yul\":16942:17013   */\n      tag_292\n        /* \"#utility.yul\":17010:17011   */\n      0x00\n        /* \"#utility.yul\":16999:17008   */\n      dup4\n        /* \"#utility.yul\":16995:17012   */\n      add\n        /* \"#utility.yul\":16986:16992   */\n      dup9\n        /* \"#utility.yul\":16942:17013   */\n      tag_78\n      jump\t// in\n    tag_292:\n        /* \"#utility.yul\":17023:17095   */\n      tag_293\n        /* \"#utility.yul\":17091:17093   */\n      0x20\n        /* \"#utility.yul\":17080:17089   */\n      dup4\n        /* \"#utility.yul\":17076:17094   */\n      add\n        /* \"#utility.yul\":17067:17073   */\n      dup8\n        /* \"#utility.yul\":17023:17095   */\n      tag_78\n      jump\t// in\n    tag_293:\n        /* \"#utility.yul\":17105:17177   */\n      tag_294\n        /* \"#utility.yul\":17173:17175   */\n      0x40\n        /* \"#utility.yul\":17162:17171   */\n      dup4\n        /* \"#utility.yul\":17158:17176   */\n      add\n        /* \"#utility.yul\":17149:17155   */\n      dup7\n        /* \"#utility.yul\":17105:17177   */\n      tag_78\n      jump\t// in\n    tag_294:\n        /* \"#utility.yul\":17224:17233   */\n      dup2\n        /* \"#utility.yul\":17218:17222   */\n      dup2\n        /* \"#utility.yul\":17214:17234   */\n      sub\n        /* \"#utility.yul\":17209:17211   */\n      0x60\n        /* \"#utility.yul\":17198:17207   */\n      dup4\n        /* \"#utility.yul\":17194:17212   */\n      add\n        /* \"#utility.yul\":17187:17235   */\n      mstore\n        /* \"#utility.yul\":17252:17338   */\n      tag_295\n        /* \"#utility.yul\":17333:17337   */\n      dup2\n        /* \"#utility.yul\":17324:17330   */\n      dup5\n        /* \"#utility.yul\":17316:17322   */\n      dup7\n        /* \"#utility.yul\":17252:17338   */\n      tag_120\n      jump\t// in\n    tag_295:\n        /* \"#utility.yul\":17244:17338   */\n      swap1\n      pop\n        /* \"#utility.yul\":16685:17345   */\n      swap7\n      swap6\n      pop\n      pop\n      pop\n      pop\n      pop\n      pop\n      jump\t// out\n\n    auxdata: 0xa2646970667358221220914dc2dd095e4c21778237db644f91f0b30d24822074c7c7c3237e1abddc1cb764736f6c63430008100033\n}\n",
				"bytecode": {
					"linkReferences": {},
					"object": "608060405234801561001057600080fd5b50610ef7806100206000396000f3fe60806040526004361061003f5760003560e01c80632488b89d146100445780638381f58a1461006d5780638e04743d14610098578063c19fcd66146100d5575b600080fd5b34801561005057600080fd5b5061006b60048036038101906100669190610658565b6100f1565b005b34801561007957600080fd5b506100826103cd565b60405161008f91906106a7565b60405180910390f35b3480156100a457600080fd5b506100bf60048036038101906100ba91906106c2565b6103d3565b6040516100cc91906106a7565b60405180910390f35b6100ef60048036038101906100ea9190610792565b6103f0565b005b600360008381526020019081526020016000205480421015610148576040517f08c379a000000000000000000000000000000000000000000000000000000000815260040161013f90610889565b60405180910390fd5b600060046000858152602001908152602001600020549050600060056000868152602001908152602001600020549050600060016000878152602001908152602001600020905060006002600088815260200190815260200160002060009054906101000a900473ffffffffffffffffffffffffffffffffffffffff16905060008173ffffffffffffffffffffffffffffffffffffffff1684846040516101ef91906109ac565b60006040518083038185875af1925050503d806000811461022c576040519150601f19603f3d011682016040523d82523d6000602084013e610231565b606091505b50509050600115158115151461027c576040517f08c379a000000000000000000000000000000000000000000000000000000000815260040161027390610a0f565b60405180910390fd5b600460008981526020019081526020016000206000905560036000898152602001908152602001600020600090556002600089815260200190815260200160002060006101000a81549073ffffffffffffffffffffffffffffffffffffffff02191690556001600089815260200190815260200160002060006102ff919061055d565b600560008981526020019081526020016000206000905560008773ffffffffffffffffffffffffffffffffffffffff168660405161033c90610a55565b60006040518083038185875af1925050503d8060008114610379576040519150601f19603f3d011682016040523d82523d6000602084013e61037e565b606091505b50509050806103c2576040517f08c379a00000000000000000000000000000000000000000000000000000000081526004016103b990610a0f565b60405180910390fd5b505050505050505050565b60005481565b600060046000838152602001908152602001600020549050919050565b60016000546103ff9190610a99565b60008190555082846104119190610a99565b3414610452576040517f08c379a000000000000000000000000000000000000000000000000000000000815260040161044990610b3f565b60405180910390fd5b83600460008054815260200190815260200160002081905550826005600080548152602001908152602001600020819055508181600160008054815260200190815260200160002091826104a7929190610d45565b508460036000805481526020019081526020016000208190555085600260008054815260200190815260200160002060006101000a81548173ffffffffffffffffffffffffffffffffffffffff021916908373ffffffffffffffffffffffffffffffffffffffff1602179055507f99074690f299eceea2609bc9fae79204a1d8f01fa2c855439afba108d4c5818e8585600054858560405161054d959493929190610e73565b60405180910390a1505050505050565b508054610569906108d8565b6000825580601f1061057b575061059a565b601f016020900490600052602060002090810190610599919061059d565b5b50565b5b808211156105b657600081600090555060010161059e565b5090565b600080fd5b600080fd5b6000819050919050565b6105d7816105c4565b81146105e257600080fd5b50565b6000813590506105f4816105ce565b92915050565b600073ffffffffffffffffffffffffffffffffffffffff82169050919050565b6000610625826105fa565b9050919050565b6106358161061a565b811461064057600080fd5b50565b6000813590506106528161062c565b92915050565b6000806040838503121561066f5761066e6105ba565b5b600061067d858286016105e5565b925050602061068e85828601610643565b9150509250929050565b6106a1816105c4565b82525050565b60006020820190506106bc6000830184610698565b92915050565b6000602082840312156106d8576106d76105ba565b5b60006106e6848285016105e5565b91505092915050565b60006106fa826105fa565b9050919050565b61070a816106ef565b811461071557600080fd5b50565b60008135905061072781610701565b92915050565b600080fd5b600080fd5b600080fd5b60008083601f8401126107525761075161072d565b5b8235905067ffffffffffffffff81111561076f5761076e610732565b5b60208301915083600182028301111561078b5761078a610737565b5b9250929050565b60008060008060008060a087890312156107af576107ae6105ba565b5b60006107bd89828a01610718565b96505060206107ce89828a016105e5565b95505060406107df89828a016105e5565b94505060606107f089828a016105e5565b935050608087013567ffffffffffffffff811115610811576108106105bf565b5b61081d89828a0161073c565b92509250509295509295509295565b600082825260208201905092915050565b7f43616c6c2069736e2774207363686564756c6564207965742e00000000000000600082015250565b600061087360198361082c565b915061087e8261083d565b602082019050919050565b600060208201905081810360008301526108a281610866565b9050919050565b7f4e487b7100000000000000000000000000000000000000000000000000000000600052602260045260246000fd5b600060028204905060018216806108f057607f821691505b602082108103610903576109026108a9565b5b50919050565b600081905092915050565b60008190508160005260206000209050919050565b60008154610936816108d8565b6109408186610909565b9450600182166000811461095b5760018114610970576109a3565b60ff19831686528115158202860193506109a3565b61097985610914565b60005b8381101561099b5781548189015260018201915060208101905061097c565b838801955050505b50505092915050565b60006109b88284610929565b915081905092915050565b7f6e6f706500000000000000000000000000000000000000000000000000000000600082015250565b60006109f960048361082c565b9150610a04826109c3565b602082019050919050565b60006020820190508181036000830152610a28816109ec565b9050919050565b50565b6000610a3f600083610909565b9150610a4a82610a2f565b600082019050919050565b6000610a6082610a32565b9150819050919050565b7f4e487b7100000000000000000000000000000000000000000000000000000000600052601160045260246000fd5b6000610aa4826105c4565b9150610aaf836105c4565b9250828201905080821115610ac757610ac6610a6a565b5b92915050565b7f53656e7420657468657220646f65736e7420657175616c20726571756972656460008201527f2065746865722e00000000000000000000000000000000000000000000000000602082015250565b6000610b2960278361082c565b9150610b3482610acd565b604082019050919050565b60006020820190508181036000830152610b5881610b1c565b9050919050565b600082905092915050565b7f4e487b7100000000000000000000000000000000000000000000000000000000600052604160045260246000fd5b60008190508160005260206000209050919050565b60006020601f8301049050919050565b600082821b905092915050565b600060088302610bfb7fffffffffffffffffffffffffffffffffffffffffffffffffffffffffffffffff82610bbe565b610c058683610bbe565b95508019841693508086168417925050509392505050565b6000819050919050565b6000610c42610c3d610c38846105c4565b610c1d565b6105c4565b9050919050565b6000819050919050565b610c5c83610c27565b610c70610c6882610c49565b848454610bcb565b825550505050565b600090565b610c85610c78565b610c90818484610c53565b505050565b5b81811015610cb457610ca9600082610c7d565b600181019050610c96565b5050565b601f821115610cf957610cca81610b99565b610cd384610bae565b81016020851015610ce2578190505b610cf6610cee85610bae565b830182610c95565b50505b505050565b600082821c905092915050565b6000610d1c60001984600802610cfe565b1980831691505092915050565b6000610d358383610d0b565b9150826002028217905092915050565b610d4f8383610b5f565b67ffffffffffffffff811115610d6857610d67610b6a565b5b610d7282546108d8565b610d7d828285610cb8565b6000601f831160018114610dac5760008415610d9a578287013590505b610da48582610d29565b865550610e0c565b601f198416610dba86610b99565b60005b82811015610de257848901358255600182019150602085019450602081019050610dbd565b86831015610dff5784890135610dfb601f891682610d0b565b8355505b6001600288020188555050505b50505050505050565b600082825260208201905092915050565b82818337600083830152505050565b6000601f19601f8301169050919050565b6000610e528385610e15565b9350610e5f838584610e26565b610e6883610e35565b840190509392505050565b6000608082019050610e886000830188610698565b610e956020830187610698565b610ea26040830186610698565b8181036060830152610eb5818486610e46565b9050969550505050505056fea2646970667358221220914dc2dd095e4c21778237db644f91f0b30d24822074c7c7c3237e1abddc1cb764736f6c63430008100033",
					"opcodes": "PUSH1 0x80 PUSH1 0x40 MSTORE CALLVALUE DUP1 ISZERO PUSH2 0x10 JUMPI PUSH1 0x0 DUP1 REVERT JUMPDEST POP PUSH2 0xEF7 DUP1 PUSH2 0x20 PUSH1 0x0 CODECOPY PUSH1 0x0 RETURN INVALID PUSH1 0x80 PUSH1 0x40 MSTORE PUSH1 0x4 CALLDATASIZE LT PUSH2 0x3F JUMPI PUSH1 0x0 CALLDATALOAD PUSH1 0xE0 SHR DUP1 PUSH4 0x2488B89D EQ PUSH2 0x44 JUMPI DUP1 PUSH4 0x8381F58A EQ PUSH2 0x6D JUMPI DUP1 PUSH4 0x8E04743D EQ PUSH2 0x98 JUMPI DUP1 PUSH4 0xC19FCD66 EQ PUSH2 0xD5 JUMPI JUMPDEST PUSH1 0x0 DUP1 REVERT JUMPDEST CALLVALUE DUP1 ISZERO PUSH2 0x50 JUMPI PUSH1 0x0 DUP1 REVERT JUMPDEST POP PUSH2 0x6B PUSH1 0x4 DUP1 CALLDATASIZE SUB DUP2 ADD SWAP1 PUSH2 0x66 SWAP2 SWAP1 PUSH2 0x658 JUMP JUMPDEST PUSH2 0xF1 JUMP JUMPDEST STOP JUMPDEST CALLVALUE DUP1 ISZERO PUSH2 0x79 JUMPI PUSH1 0x0 DUP1 REVERT JUMPDEST POP PUSH2 0x82 PUSH2 0x3CD JUMP JUMPDEST PUSH1 0x40 MLOAD PUSH2 0x8F SWAP2 SWAP1 PUSH2 0x6A7 JUMP JUMPDEST PUSH1 0x40 MLOAD DUP1 SWAP2 SUB SWAP1 RETURN JUMPDEST CALLVALUE DUP1 ISZERO PUSH2 0xA4 JUMPI PUSH1 0x0 DUP1 REVERT JUMPDEST POP PUSH2 0xBF PUSH1 0x4 DUP1 CALLDATASIZE SUB DUP2 ADD SWAP1 PUSH2 0xBA SWAP2 SWAP1 PUSH2 0x6C2 JUMP JUMPDEST PUSH2 0x3D3 JUMP JUMPDEST PUSH1 0x40 MLOAD PUSH2 0xCC SWAP2 SWAP1 PUSH2 0x6A7 JUMP JUMPDEST PUSH1 0x40 MLOAD DUP1 SWAP2 SUB SWAP1 RETURN JUMPDEST PUSH2 0xEF PUSH1 0x4 DUP1 CALLDATASIZE SUB DUP2 ADD SWAP1 PUSH2 0xEA SWAP2 SWAP1 PUSH2 0x792 JUMP JUMPDEST PUSH2 0x3F0 JUMP JUMPDEST STOP JUMPDEST PUSH1 0x3 PUSH1 0x0 DUP4 DUP2 MSTORE PUSH1 0x20 ADD SWAP1 DUP2 MSTORE PUSH1 0x20 ADD PUSH1 0x0 KECCAK256 SLOAD DUP1 TIMESTAMP LT ISZERO PUSH2 0x148 JUMPI PUSH1 0x40 MLOAD PUSH32 0x8C379A000000000000000000000000000000000000000000000000000000000 DUP2 MSTORE PUSH1 0x4 ADD PUSH2 0x13F SWAP1 PUSH2 0x889 JUMP JUMPDEST PUSH1 0x40 MLOAD DUP1 SWAP2 SUB SWAP1 REVERT JUMPDEST PUSH1 0x0 PUSH1 0x4 PUSH1 0x0 DUP6 DUP2 MSTORE PUSH1 0x20 ADD SWAP1 DUP2 MSTORE PUSH1 0x20 ADD PUSH1 0x0 KECCAK256 SLOAD SWAP1 POP PUSH1 0x0 PUSH1 0x5 PUSH1 0x0 DUP7 DUP2 MSTORE PUSH1 0x20 ADD SWAP1 DUP2 MSTORE PUSH1 0x20 ADD PUSH1 0x0 KECCAK256 SLOAD SWAP1 POP PUSH1 0x0 PUSH1 0x1 PUSH1 0x0 DUP8 DUP2 MSTORE PUSH1 0x20 ADD SWAP1 DUP2 MSTORE PUSH1 0x20 ADD PUSH1 0x0 KECCAK256 SWAP1 POP PUSH1 0x0 PUSH1 0x2 PUSH1 0x0 DUP9 DUP2 MSTORE PUSH1 0x20 ADD SWAP1 DUP2 MSTORE PUSH1 0x20 ADD PUSH1 0x0 KECCAK256 PUSH1 0x0 SWAP1 SLOAD SWAP1 PUSH2 0x100 EXP SWAP1 DIV PUSH20 0xFFFFFFFFFFFFFFFFFFFFFFFFFFFFFFFFFFFFFFFF AND SWAP1 POP PUSH1 0x0 DUP2 PUSH20 0xFFFFFFFFFFFFFFFFFFFFFFFFFFFFFFFFFFFFFFFF AND DUP5 DUP5 PUSH1 0x40 MLOAD PUSH2 0x1EF SWAP2 SWAP1 PUSH2 0x9AC JUMP JUMPDEST PUSH1 0x0 PUSH1 0x40 MLOAD DUP1 DUP4 SUB DUP2 DUP6 DUP8 GAS CALL SWAP3 POP POP POP RETURNDATASIZE DUP1 PUSH1 0x0 DUP2 EQ PUSH2 0x22C JUMPI PUSH1 0x40 MLOAD SWAP2 POP PUSH1 0x1F NOT PUSH1 0x3F RETURNDATASIZE ADD AND DUP3 ADD PUSH1 0x40 MSTORE RETURNDATASIZE DUP3 MSTORE RETURNDATASIZE PUSH1 0x0 PUSH1 0x20 DUP5 ADD RETURNDATACOPY PUSH2 0x231 JUMP JUMPDEST PUSH1 0x60 SWAP2 POP JUMPDEST POP POP SWAP1 POP PUSH1 0x1 ISZERO ISZERO DUP2 ISZERO ISZERO EQ PUSH2 0x27C JUMPI PUSH1 0x40 MLOAD PUSH32 0x8C379A000000000000000000000000000000000000000000000000000000000 DUP2 MSTORE PUSH1 0x4 ADD PUSH2 0x273 SWAP1 PUSH2 0xA0F JUMP JUMPDEST PUSH1 0x40 MLOAD DUP1 SWAP2 SUB SWAP1 REVERT JUMPDEST PUSH1 0x4 PUSH1 0x0 DUP10 DUP2 MSTORE PUSH1 0x20 ADD SWAP1 DUP2 MSTORE PUSH1 0x20 ADD PUSH1 0x0 KECCAK256 PUSH1 0x0 SWAP1 SSTORE PUSH1 0x3 PUSH1 0x0 DUP10 DUP2 MSTORE PUSH1 0x20 ADD SWAP1 DUP2 MSTORE PUSH1 0x20 ADD PUSH1 0x0 KECCAK256 PUSH1 0x0 SWAP1 SSTORE PUSH1 0x2 PUSH1 0x0 DUP10 DUP2 MSTORE PUSH1 0x20 ADD SWAP1 DUP2 MSTORE PUSH1 0x20 ADD PUSH1 0x0 KECCAK256 PUSH1 0x0 PUSH2 0x100 EXP DUP2 SLOAD SWAP1 PUSH20 0xFFFFFFFFFFFFFFFFFFFFFFFFFFFFFFFFFFFFFFFF MUL NOT AND SWAP1 SSTORE PUSH1 0x1 PUSH1 0x0 DUP10 DUP2 MSTORE PUSH1 0x20 ADD SWAP1 DUP2 MSTORE PUSH1 0x20 ADD PUSH1 0x0 KECCAK256 PUSH1 0x0 PUSH2 0x2FF SWAP2 SWAP1 PUSH2 0x55D JUMP JUMPDEST PUSH1 0x5 PUSH1 0x0 DUP10 DUP2 MSTORE PUSH1 0x20 ADD SWAP1 DUP2 MSTORE PUSH1 0x20 ADD PUSH1 0x0 KECCAK256 PUSH1 0x0 SWAP1 SSTORE PUSH1 0x0 DUP8 PUSH20 0xFFFFFFFFFFFFFFFFFFFFFFFFFFFFFFFFFFFFFFFF AND DUP7 PUSH1 0x40 MLOAD PUSH2 0x33C SWAP1 PUSH2 0xA55 JUMP JUMPDEST PUSH1 0x0 PUSH1 0x40 MLOAD DUP1 DUP4 SUB DUP2 DUP6 DUP8 GAS CALL SWAP3 POP POP POP RETURNDATASIZE DUP1 PUSH1 0x0 DUP2 EQ PUSH2 0x379 JUMPI PUSH1 0x40 MLOAD SWAP2 POP PUSH1 0x1F NOT PUSH1 0x3F RETURNDATASIZE ADD AND DUP3 ADD PUSH1 0x40 MSTORE RETURNDATASIZE DUP3 MSTORE RETURNDATASIZE PUSH1 0x0 PUSH1 0x20 DUP5 ADD RETURNDATACOPY PUSH2 0x37E JUMP JUMPDEST PUSH1 0x60 SWAP2 POP JUMPDEST POP POP SWAP1 POP DUP1 PUSH2 0x3C2 JUMPI PUSH1 0x40 MLOAD PUSH32 0x8C379A000000000000000000000000000000000000000000000000000000000 DUP2 MSTORE PUSH1 0x4 ADD PUSH2 0x3B9 SWAP1 PUSH2 0xA0F JUMP JUMPDEST PUSH1 0x40 MLOAD DUP1 SWAP2 SUB SWAP1 REVERT JUMPDEST POP POP POP POP POP POP POP POP POP JUMP JUMPDEST PUSH1 0x0 SLOAD DUP2 JUMP JUMPDEST PUSH1 0x0 PUSH1 0x4 PUSH1 0x0 DUP4 DUP2 MSTORE PUSH1 0x20 ADD SWAP1 DUP2 MSTORE PUSH1 0x20 ADD PUSH1 0x0 KECCAK256 SLOAD SWAP1 POP SWAP2 SWAP1 POP JUMP JUMPDEST PUSH1 0x1 PUSH1 0x0 SLOAD PUSH2 0x3FF SWAP2 SWAP1 PUSH2 0xA99 JUMP JUMPDEST PUSH1 0x0 DUP2 SWAP1 SSTORE POP DUP3 DUP5 PUSH2 0x411 SWAP2 SWAP1 PUSH2 0xA99 JUMP JUMPDEST CALLVALUE EQ PUSH2 0x452 JUMPI PUSH1 0x40 MLOAD PUSH32 0x8C379A000000000000000000000000000000000000000000000000000000000 DUP2 MSTORE PUSH1 0x4 ADD PUSH2 0x449 SWAP1 PUSH2 0xB3F JUMP JUMPDEST PUSH1 0x40 MLOAD DUP1 SWAP2 SUB SWAP1 REVERT JUMPDEST DUP4 PUSH1 0x4 PUSH1 0x0 DUP1 SLOAD DUP2 MSTORE PUSH1 0x20 ADD SWAP1 DUP2 MSTORE PUSH1 0x20 ADD PUSH1 0x0 KECCAK256 DUP2 SWAP1 SSTORE POP DUP3 PUSH1 0x5 PUSH1 0x0 DUP1 SLOAD DUP2 MSTORE PUSH1 0x20 ADD SWAP1 DUP2 MSTORE PUSH1 0x20 ADD PUSH1 0x0 KECCAK256 DUP2 SWAP1 SSTORE POP DUP2 DUP2 PUSH1 0x1 PUSH1 0x0 DUP1 SLOAD DUP2 MSTORE PUSH1 0x20 ADD SWAP1 DUP2 MSTORE PUSH1 0x20 ADD PUSH1 0x0 KECCAK256 SWAP2 DUP3 PUSH2 0x4A7 SWAP3 SWAP2 SWAP1 PUSH2 0xD45 JUMP JUMPDEST POP DUP5 PUSH1 0x3 PUSH1 0x0 DUP1 SLOAD DUP2 MSTORE PUSH1 0x20 ADD SWAP1 DUP2 MSTORE PUSH1 0x20 ADD PUSH1 0x0 KECCAK256 DUP2 SWAP1 SSTORE POP DUP6 PUSH1 0x2 PUSH1 0x0 DUP1 SLOAD DUP2 MSTORE PUSH1 0x20 ADD SWAP1 DUP2 MSTORE PUSH1 0x20 ADD PUSH1 0x0 KECCAK256 PUSH1 0x0 PUSH2 0x100 EXP DUP2 SLOAD DUP2 PUSH20 0xFFFFFFFFFFFFFFFFFFFFFFFFFFFFFFFFFFFFFFFF MUL NOT AND SWAP1 DUP4 PUSH20 0xFFFFFFFFFFFFFFFFFFFFFFFFFFFFFFFFFFFFFFFF AND MUL OR SWAP1 SSTORE POP PUSH32 0x99074690F299ECEEA2609BC9FAE79204A1D8F01FA2C855439AFBA108D4C5818E DUP6 DUP6 PUSH1 0x0 SLOAD DUP6 DUP6 PUSH1 0x40 MLOAD PUSH2 0x54D SWAP6 SWAP5 SWAP4 SWAP3 SWAP2 SWAP1 PUSH2 0xE73 JUMP JUMPDEST PUSH1 0x40 MLOAD DUP1 SWAP2 SUB SWAP1 LOG1 POP POP POP POP POP POP JUMP JUMPDEST POP DUP1 SLOAD PUSH2 0x569 SWAP1 PUSH2 0x8D8 JUMP JUMPDEST PUSH1 0x0 DUP3 SSTORE DUP1 PUSH1 0x1F LT PUSH2 0x57B JUMPI POP PUSH2 0x59A JUMP JUMPDEST PUSH1 0x1F ADD PUSH1 0x20 SWAP1 DIV SWAP1 PUSH1 0x0 MSTORE PUSH1 0x20 PUSH1 0x0 KECCAK256 SWAP1 DUP2 ADD SWAP1 PUSH2 0x599 SWAP2 SWAP1 PUSH2 0x59D JUMP JUMPDEST JUMPDEST POP JUMP JUMPDEST JUMPDEST DUP1 DUP3 GT ISZERO PUSH2 0x5B6 JUMPI PUSH1 0x0 DUP2 PUSH1 0x0 SWAP1 SSTORE POP PUSH1 0x1 ADD PUSH2 0x59E JUMP JUMPDEST POP SWAP1 JUMP JUMPDEST PUSH1 0x0 DUP1 REVERT JUMPDEST PUSH1 0x0 DUP1 REVERT JUMPDEST PUSH1 0x0 DUP2 SWAP1 POP SWAP2 SWAP1 POP JUMP JUMPDEST PUSH2 0x5D7 DUP2 PUSH2 0x5C4 JUMP JUMPDEST DUP2 EQ PUSH2 0x5E2 JUMPI PUSH1 0x0 DUP1 REVERT JUMPDEST POP JUMP JUMPDEST PUSH1 0x0 DUP2 CALLDATALOAD SWAP1 POP PUSH2 0x5F4 DUP2 PUSH2 0x5CE JUMP JUMPDEST SWAP3 SWAP2 POP POP JUMP JUMPDEST PUSH1 0x0 PUSH20 0xFFFFFFFFFFFFFFFFFFFFFFFFFFFFFFFFFFFFFFFF DUP3 AND SWAP1 POP SWAP2 SWAP1 POP JUMP JUMPDEST PUSH1 0x0 PUSH2 0x625 DUP3 PUSH2 0x5FA JUMP JUMPDEST SWAP1 POP SWAP2 SWAP1 POP JUMP JUMPDEST PUSH2 0x635 DUP2 PUSH2 0x61A JUMP JUMPDEST DUP2 EQ PUSH2 0x640 JUMPI PUSH1 0x0 DUP1 REVERT JUMPDEST POP JUMP JUMPDEST PUSH1 0x0 DUP2 CALLDATALOAD SWAP1 POP PUSH2 0x652 DUP2 PUSH2 0x62C JUMP JUMPDEST SWAP3 SWAP2 POP POP JUMP JUMPDEST PUSH1 0x0 DUP1 PUSH1 0x40 DUP4 DUP6 SUB SLT ISZERO PUSH2 0x66F JUMPI PUSH2 0x66E PUSH2 0x5BA JUMP JUMPDEST JUMPDEST PUSH1 0x0 PUSH2 0x67D DUP6 DUP3 DUP7 ADD PUSH2 0x5E5 JUMP JUMPDEST SWAP3 POP POP PUSH1 0x20 PUSH2 0x68E DUP6 DUP3 DUP7 ADD PUSH2 0x643 JUMP JUMPDEST SWAP2 POP POP SWAP3 POP SWAP3 SWAP1 POP JUMP JUMPDEST PUSH2 0x6A1 DUP2 PUSH2 0x5C4 JUMP JUMPDEST DUP3 MSTORE POP POP JUMP JUMPDEST PUSH1 0x0 PUSH1 0x20 DUP3 ADD SWAP1 POP PUSH2 0x6BC PUSH1 0x0 DUP4 ADD DUP5 PUSH2 0x698 JUMP JUMPDEST SWAP3 SWAP2 POP POP JUMP JUMPDEST PUSH1 0x0 PUSH1 0x20 DUP3 DUP5 SUB SLT ISZERO PUSH2 0x6D8 JUMPI PUSH2 0x6D7 PUSH2 0x5BA JUMP JUMPDEST JUMPDEST PUSH1 0x0 PUSH2 0x6E6 DUP5 DUP3 DUP6 ADD PUSH2 0x5E5 JUMP JUMPDEST SWAP2 POP POP SWAP3 SWAP2 POP POP JUMP JUMPDEST PUSH1 0x0 PUSH2 0x6FA DUP3 PUSH2 0x5FA JUMP JUMPDEST SWAP1 POP SWAP2 SWAP1 POP JUMP JUMPDEST PUSH2 0x70A DUP2 PUSH2 0x6EF JUMP JUMPDEST DUP2 EQ PUSH2 0x715 JUMPI PUSH1 0x0 DUP1 REVERT JUMPDEST POP JUMP JUMPDEST PUSH1 0x0 DUP2 CALLDATALOAD SWAP1 POP PUSH2 0x727 DUP2 PUSH2 0x701 JUMP JUMPDEST SWAP3 SWAP2 POP POP JUMP JUMPDEST PUSH1 0x0 DUP1 REVERT JUMPDEST PUSH1 0x0 DUP1 REVERT JUMPDEST PUSH1 0x0 DUP1 REVERT JUMPDEST PUSH1 0x0 DUP1 DUP4 PUSH1 0x1F DUP5 ADD SLT PUSH2 0x752 JUMPI PUSH2 0x751 PUSH2 0x72D JUMP JUMPDEST JUMPDEST DUP3 CALLDATALOAD SWAP1 POP PUSH8 0xFFFFFFFFFFFFFFFF DUP2 GT ISZERO PUSH2 0x76F JUMPI PUSH2 0x76E PUSH2 0x732 JUMP JUMPDEST JUMPDEST PUSH1 0x20 DUP4 ADD SWAP2 POP DUP4 PUSH1 0x1 DUP3 MUL DUP4 ADD GT ISZERO PUSH2 0x78B JUMPI PUSH2 0x78A PUSH2 0x737 JUMP JUMPDEST JUMPDEST SWAP3 POP SWAP3 SWAP1 POP JUMP JUMPDEST PUSH1 0x0 DUP1 PUSH1 0x0 DUP1 PUSH1 0x0 DUP1 PUSH1 0xA0 DUP8 DUP10 SUB SLT ISZERO PUSH2 0x7AF JUMPI PUSH2 0x7AE PUSH2 0x5BA JUMP JUMPDEST JUMPDEST PUSH1 0x0 PUSH2 0x7BD DUP10 DUP3 DUP11 ADD PUSH2 0x718 JUMP JUMPDEST SWAP7 POP POP PUSH1 0x20 PUSH2 0x7CE DUP10 DUP3 DUP11 ADD PUSH2 0x5E5 JUMP JUMPDEST SWAP6 POP POP PUSH1 0x40 PUSH2 0x7DF DUP10 DUP3 DUP11 ADD PUSH2 0x5E5 JUMP JUMPDEST SWAP5 POP POP PUSH1 0x60 PUSH2 0x7F0 DUP10 DUP3 DUP11 ADD PUSH2 0x5E5 JUMP JUMPDEST SWAP4 POP POP PUSH1 0x80 DUP8 ADD CALLDATALOAD PUSH8 0xFFFFFFFFFFFFFFFF DUP2 GT ISZERO PUSH2 0x811 JUMPI PUSH2 0x810 PUSH2 0x5BF JUMP JUMPDEST JUMPDEST PUSH2 0x81D DUP10 DUP3 DUP11 ADD PUSH2 0x73C JUMP JUMPDEST SWAP3 POP SWAP3 POP POP SWAP3 SWAP6 POP SWAP3 SWAP6 POP SWAP3 SWAP6 JUMP JUMPDEST PUSH1 0x0 DUP3 DUP3 MSTORE PUSH1 0x20 DUP3 ADD SWAP1 POP SWAP3 SWAP2 POP POP JUMP JUMPDEST PUSH32 0x43616C6C2069736E2774207363686564756C6564207965742E00000000000000 PUSH1 0x0 DUP3 ADD MSTORE POP JUMP JUMPDEST PUSH1 0x0 PUSH2 0x873 PUSH1 0x19 DUP4 PUSH2 0x82C JUMP JUMPDEST SWAP2 POP PUSH2 0x87E DUP3 PUSH2 0x83D JUMP JUMPDEST PUSH1 0x20 DUP3 ADD SWAP1 POP SWAP2 SWAP1 POP JUMP JUMPDEST PUSH1 0x0 PUSH1 0x20 DUP3 ADD SWAP1 POP DUP2 DUP2 SUB PUSH1 0x0 DUP4 ADD MSTORE PUSH2 0x8A2 DUP2 PUSH2 0x866 JUMP JUMPDEST SWAP1 POP SWAP2 SWAP1 POP JUMP JUMPDEST PUSH32 0x4E487B7100000000000000000000000000000000000000000000000000000000 PUSH1 0x0 MSTORE PUSH1 0x22 PUSH1 0x4 MSTORE PUSH1 0x24 PUSH1 0x0 REVERT JUMPDEST PUSH1 0x0 PUSH1 0x2 DUP3 DIV SWAP1 POP PUSH1 0x1 DUP3 AND DUP1 PUSH2 0x8F0 JUMPI PUSH1 0x7F DUP3 AND SWAP2 POP JUMPDEST PUSH1 0x20 DUP3 LT DUP2 SUB PUSH2 0x903 JUMPI PUSH2 0x902 PUSH2 0x8A9 JUMP JUMPDEST JUMPDEST POP SWAP2 SWAP1 POP JUMP JUMPDEST PUSH1 0x0 DUP2 SWAP1 POP SWAP3 SWAP2 POP POP JUMP JUMPDEST PUSH1 0x0 DUP2 SWAP1 POP DUP2 PUSH1 0x0 MSTORE PUSH1 0x20 PUSH1 0x0 KECCAK256 SWAP1 POP SWAP2 SWAP1 POP JUMP JUMPDEST PUSH1 0x0 DUP2 SLOAD PUSH2 0x936 DUP2 PUSH2 0x8D8 JUMP JUMPDEST PUSH2 0x940 DUP2 DUP7 PUSH2 0x909 JUMP JUMPDEST SWAP5 POP PUSH1 0x1 DUP3 AND PUSH1 0x0 DUP2 EQ PUSH2 0x95B JUMPI PUSH1 0x1 DUP2 EQ PUSH2 0x970 JUMPI PUSH2 0x9A3 JUMP JUMPDEST PUSH1 0xFF NOT DUP4 AND DUP7 MSTORE DUP2 ISZERO ISZERO DUP3 MUL DUP7 ADD SWAP4 POP PUSH2 0x9A3 JUMP JUMPDEST PUSH2 0x979 DUP6 PUSH2 0x914 JUMP JUMPDEST PUSH1 0x0 JUMPDEST DUP4 DUP2 LT ISZERO PUSH2 0x99B JUMPI DUP2 SLOAD DUP2 DUP10 ADD MSTORE PUSH1 0x1 DUP3 ADD SWAP2 POP PUSH1 0x20 DUP2 ADD SWAP1 POP PUSH2 0x97C JUMP JUMPDEST DUP4 DUP9 ADD SWAP6 POP POP POP JUMPDEST POP POP POP SWAP3 SWAP2 POP POP JUMP JUMPDEST PUSH1 0x0 PUSH2 0x9B8 DUP3 DUP5 PUSH2 0x929 JUMP JUMPDEST SWAP2 POP DUP2 SWAP1 POP SWAP3 SWAP2 POP POP JUMP JUMPDEST PUSH32 0x6E6F706500000000000000000000000000000000000000000000000000000000 PUSH1 0x0 DUP3 ADD MSTORE POP JUMP JUMPDEST PUSH1 0x0 PUSH2 0x9F9 PUSH1 0x4 DUP4 PUSH2 0x82C JUMP JUMPDEST SWAP2 POP PUSH2 0xA04 DUP3 PUSH2 0x9C3 JUMP JUMPDEST PUSH1 0x20 DUP3 ADD SWAP1 POP SWAP2 SWAP1 POP JUMP JUMPDEST PUSH1 0x0 PUSH1 0x20 DUP3 ADD SWAP1 POP DUP2 DUP2 SUB PUSH1 0x0 DUP4 ADD MSTORE PUSH2 0xA28 DUP2 PUSH2 0x9EC JUMP JUMPDEST SWAP1 POP SWAP2 SWAP1 POP JUMP JUMPDEST POP JUMP JUMPDEST PUSH1 0x0 PUSH2 0xA3F PUSH1 0x0 DUP4 PUSH2 0x909 JUMP JUMPDEST SWAP2 POP PUSH2 0xA4A DUP3 PUSH2 0xA2F JUMP JUMPDEST PUSH1 0x0 DUP3 ADD SWAP1 POP SWAP2 SWAP1 POP JUMP JUMPDEST PUSH1 0x0 PUSH2 0xA60 DUP3 PUSH2 0xA32 JUMP JUMPDEST SWAP2 POP DUP2 SWAP1 POP SWAP2 SWAP1 POP JUMP JUMPDEST PUSH32 0x4E487B7100000000000000000000000000000000000000000000000000000000 PUSH1 0x0 MSTORE PUSH1 0x11 PUSH1 0x4 MSTORE PUSH1 0x24 PUSH1 0x0 REVERT JUMPDEST PUSH1 0x0 PUSH2 0xAA4 DUP3 PUSH2 0x5C4 JUMP JUMPDEST SWAP2 POP PUSH2 0xAAF DUP4 PUSH2 0x5C4 JUMP JUMPDEST SWAP3 POP DUP3 DUP3 ADD SWAP1 POP DUP1 DUP3 GT ISZERO PUSH2 0xAC7 JUMPI PUSH2 0xAC6 PUSH2 0xA6A JUMP JUMPDEST JUMPDEST SWAP3 SWAP2 POP POP JUMP JUMPDEST PUSH32 0x53656E7420657468657220646F65736E7420657175616C207265717569726564 PUSH1 0x0 DUP3 ADD MSTORE PUSH32 0x2065746865722E00000000000000000000000000000000000000000000000000 PUSH1 0x20 DUP3 ADD MSTORE POP JUMP JUMPDEST PUSH1 0x0 PUSH2 0xB29 PUSH1 0x27 DUP4 PUSH2 0x82C JUMP JUMPDEST SWAP2 POP PUSH2 0xB34 DUP3 PUSH2 0xACD JUMP JUMPDEST PUSH1 0x40 DUP3 ADD SWAP1 POP SWAP2 SWAP1 POP JUMP JUMPDEST PUSH1 0x0 PUSH1 0x20 DUP3 ADD SWAP1 POP DUP2 DUP2 SUB PUSH1 0x0 DUP4 ADD MSTORE PUSH2 0xB58 DUP2 PUSH2 0xB1C JUMP JUMPDEST SWAP1 POP SWAP2 SWAP1 POP JUMP JUMPDEST PUSH1 0x0 DUP3 SWAP1 POP SWAP3 SWAP2 POP POP JUMP JUMPDEST PUSH32 0x4E487B7100000000000000000000000000000000000000000000000000000000 PUSH1 0x0 MSTORE PUSH1 0x41 PUSH1 0x4 MSTORE PUSH1 0x24 PUSH1 0x0 REVERT JUMPDEST PUSH1 0x0 DUP2 SWAP1 POP DUP2 PUSH1 0x0 MSTORE PUSH1 0x20 PUSH1 0x0 KECCAK256 SWAP1 POP SWAP2 SWAP1 POP JUMP JUMPDEST PUSH1 0x0 PUSH1 0x20 PUSH1 0x1F DUP4 ADD DIV SWAP1 POP SWAP2 SWAP1 POP JUMP JUMPDEST PUSH1 0x0 DUP3 DUP3 SHL SWAP1 POP SWAP3 SWAP2 POP POP JUMP JUMPDEST PUSH1 0x0 PUSH1 0x8 DUP4 MUL PUSH2 0xBFB PUSH32 0xFFFFFFFFFFFFFFFFFFFFFFFFFFFFFFFFFFFFFFFFFFFFFFFFFFFFFFFFFFFFFFFF DUP3 PUSH2 0xBBE JUMP JUMPDEST PUSH2 0xC05 DUP7 DUP4 PUSH2 0xBBE JUMP JUMPDEST SWAP6 POP DUP1 NOT DUP5 AND SWAP4 POP DUP1 DUP7 AND DUP5 OR SWAP3 POP POP POP SWAP4 SWAP3 POP POP POP JUMP JUMPDEST PUSH1 0x0 DUP2 SWAP1 POP SWAP2 SWAP1 POP JUMP JUMPDEST PUSH1 0x0 PUSH2 0xC42 PUSH2 0xC3D PUSH2 0xC38 DUP5 PUSH2 0x5C4 JUMP JUMPDEST PUSH2 0xC1D JUMP JUMPDEST PUSH2 0x5C4 JUMP JUMPDEST SWAP1 POP SWAP2 SWAP1 POP JUMP JUMPDEST PUSH1 0x0 DUP2 SWAP1 POP SWAP2 SWAP1 POP JUMP JUMPDEST PUSH2 0xC5C DUP4 PUSH2 0xC27 JUMP JUMPDEST PUSH2 0xC70 PUSH2 0xC68 DUP3 PUSH2 0xC49 JUMP JUMPDEST DUP5 DUP5 SLOAD PUSH2 0xBCB JUMP JUMPDEST DUP3 SSTORE POP POP POP POP JUMP JUMPDEST PUSH1 0x0 SWAP1 JUMP JUMPDEST PUSH2 0xC85 PUSH2 0xC78 JUMP JUMPDEST PUSH2 0xC90 DUP2 DUP5 DUP5 PUSH2 0xC53 JUMP JUMPDEST POP POP POP JUMP JUMPDEST JUMPDEST DUP2 DUP2 LT ISZERO PUSH2 0xCB4 JUMPI PUSH2 0xCA9 PUSH1 0x0 DUP3 PUSH2 0xC7D JUMP JUMPDEST PUSH1 0x1 DUP2 ADD SWAP1 POP PUSH2 0xC96 JUMP JUMPDEST POP POP JUMP JUMPDEST PUSH1 0x1F DUP3 GT ISZERO PUSH2 0xCF9 JUMPI PUSH2 0xCCA DUP2 PUSH2 0xB99 JUMP JUMPDEST PUSH2 0xCD3 DUP5 PUSH2 0xBAE JUMP JUMPDEST DUP2 ADD PUSH1 0x20 DUP6 LT ISZERO PUSH2 0xCE2 JUMPI DUP2 SWAP1 POP JUMPDEST PUSH2 0xCF6 PUSH2 0xCEE DUP6 PUSH2 0xBAE JUMP JUMPDEST DUP4 ADD DUP3 PUSH2 0xC95 JUMP JUMPDEST POP POP JUMPDEST POP POP POP JUMP JUMPDEST PUSH1 0x0 DUP3 DUP3 SHR SWAP1 POP SWAP3 SWAP2 POP POP JUMP JUMPDEST PUSH1 0x0 PUSH2 0xD1C PUSH1 0x0 NOT DUP5 PUSH1 0x8 MUL PUSH2 0xCFE JUMP JUMPDEST NOT DUP1 DUP4 AND SWAP2 POP POP SWAP3 SWAP2 POP POP JUMP JUMPDEST PUSH1 0x0 PUSH2 0xD35 DUP4 DUP4 PUSH2 0xD0B JUMP JUMPDEST SWAP2 POP DUP3 PUSH1 0x2 MUL DUP3 OR SWAP1 POP SWAP3 SWAP2 POP POP JUMP JUMPDEST PUSH2 0xD4F DUP4 DUP4 PUSH2 0xB5F JUMP JUMPDEST PUSH8 0xFFFFFFFFFFFFFFFF DUP2 GT ISZERO PUSH2 0xD68 JUMPI PUSH2 0xD67 PUSH2 0xB6A JUMP JUMPDEST JUMPDEST PUSH2 0xD72 DUP3 SLOAD PUSH2 0x8D8 JUMP JUMPDEST PUSH2 0xD7D DUP3 DUP3 DUP6 PUSH2 0xCB8 JUMP JUMPDEST PUSH1 0x0 PUSH1 0x1F DUP4 GT PUSH1 0x1 DUP2 EQ PUSH2 0xDAC JUMPI PUSH1 0x0 DUP5 ISZERO PUSH2 0xD9A JUMPI DUP3 DUP8 ADD CALLDATALOAD SWAP1 POP JUMPDEST PUSH2 0xDA4 DUP6 DUP3 PUSH2 0xD29 JUMP JUMPDEST DUP7 SSTORE POP PUSH2 0xE0C JUMP JUMPDEST PUSH1 0x1F NOT DUP5 AND PUSH2 0xDBA DUP7 PUSH2 0xB99 JUMP JUMPDEST PUSH1 0x0 JUMPDEST DUP3 DUP2 LT ISZERO PUSH2 0xDE2 JUMPI DUP5 DUP10 ADD CALLDATALOAD DUP3 SSTORE PUSH1 0x1 DUP3 ADD SWAP2 POP PUSH1 0x20 DUP6 ADD SWAP5 POP PUSH1 0x20 DUP2 ADD SWAP1 POP PUSH2 0xDBD JUMP JUMPDEST DUP7 DUP4 LT ISZERO PUSH2 0xDFF JUMPI DUP5 DUP10 ADD CALLDATALOAD PUSH2 0xDFB PUSH1 0x1F DUP10 AND DUP3 PUSH2 0xD0B JUMP JUMPDEST DUP4 SSTORE POP JUMPDEST PUSH1 0x1 PUSH1 0x2 DUP9 MUL ADD DUP9 SSTORE POP POP POP JUMPDEST POP POP POP POP POP POP POP JUMP JUMPDEST PUSH1 0x0 DUP3 DUP3 MSTORE PUSH1 0x20 DUP3 ADD SWAP1 POP SWAP3 SWAP2 POP POP JUMP JUMPDEST DUP3 DUP2 DUP4 CALLDATACOPY PUSH1 0x0 DUP4 DUP4 ADD MSTORE POP POP POP JUMP JUMPDEST PUSH1 0x0 PUSH1 0x1F NOT PUSH1 0x1F DUP4 ADD AND SWAP1 POP SWAP2 SWAP1 POP JUMP JUMPDEST PUSH1 0x0 PUSH2 0xE52 DUP4 DUP6 PUSH2 0xE15 JUMP JUMPDEST SWAP4 POP PUSH2 0xE5F DUP4 DUP6 DUP5 PUSH2 0xE26 JUMP JUMPDEST PUSH2 0xE68 DUP4 PUSH2 0xE35 JUMP JUMPDEST DUP5 ADD SWAP1 POP SWAP4 SWAP3 POP POP POP JUMP JUMPDEST PUSH1 0x0 PUSH1 0x80 DUP3 ADD SWAP1 POP PUSH2 0xE88 PUSH1 0x0 DUP4 ADD DUP9 PUSH2 0x698 JUMP JUMPDEST PUSH2 0xE95 PUSH1 0x20 DUP4 ADD DUP8 PUSH2 0x698 JUMP JUMPDEST PUSH2 0xEA2 PUSH1 0x40 DUP4 ADD DUP7 PUSH2 0x698 JUMP JUMPDEST DUP2 DUP2 SUB PUSH1 0x60 DUP4 ADD MSTORE PUSH2 0xEB5 DUP2 DUP5 DUP7 PUSH2 0xE46 JUMP JUMPDEST SWAP1 POP SWAP7 SWAP6 POP POP POP POP POP POP JUMP INVALID LOG2 PUSH5 0x6970667358 0x22 SLT KECCAK256 SWAP2 0x4D 0xC2 0xDD MULMOD 0x5E 0x4C 0x21 PUSH24 0x8237DB644F91F0B30D24822074C7C7C3237E1ABDDC1CB764 PUSH20 0x6F6C634300081000330000000000000000000000 "
				},
				"gasEstimates": {
					"creation": {
						"codeDepositCost": "766200",
						"executionCost": "799",
						"totalCost": "766999"
					},
					"external": {
						"CallRewards(uint256)": "infinite",
						"PopCall(uint256,address)": "infinite",
						"ScheduleCall(address,uint256,uint256,uint256,bytes)": "infinite",
						"number()": "2429"
					}
				},
				"methodIdentifiers": {
					"CallRewards(uint256)": "8e04743d",
					"PopCall(uint256,address)": "2488b89d",
					"ScheduleCall(address,uint256,uint256,uint256,bytes)": "c19fcd66",
					"number()": "8381f58a"
				}
			},
			"storageLayout": {
				"storage": [
					{
						"astId": 4,
						"contract": "Users/eoghan/repos/ScheduledFunctionCallDirectory/src/ScheduledFunctionCallDirectory.sol:ScheduledFunctionCallDirectory",
						"label": "number",
						"offset": 0,
						"slot": "0",
						"type": "t_uint256"
					},
					{
						"astId": 8,
						"contract": "Users/eoghan/repos/ScheduledFunctionCallDirectory/src/ScheduledFunctionCallDirectory.sol:ScheduledFunctionCallDirectory",
						"label": "arguments",
						"offset": 0,
						"slot": "1",
						"type": "t_mapping(t_uint256,t_bytes_storage)"
					},
					{
						"astId": 12,
						"contract": "Users/eoghan/repos/ScheduledFunctionCallDirectory/src/ScheduledFunctionCallDirectory.sol:ScheduledFunctionCallDirectory",
						"label": "addresses",
						"offset": 0,
						"slot": "2",
						"type": "t_mapping(t_uint256,t_address)"
					},
					{
						"astId": 16,
						"contract": "Users/eoghan/repos/ScheduledFunctionCallDirectory/src/ScheduledFunctionCallDirectory.sol:ScheduledFunctionCallDirectory",
						"label": "timestamps",
						"offset": 0,
						"slot": "3",
						"type": "t_mapping(t_uint256,t_uint256)"
					},
					{
						"astId": 20,
						"contract": "Users/eoghan/repos/ScheduledFunctionCallDirectory/src/ScheduledFunctionCallDirectory.sol:ScheduledFunctionCallDirectory",
						"label": "rewards",
						"offset": 0,
						"slot": "4",
						"type": "t_mapping(t_uint256,t_uint256)"
					},
					{
						"astId": 24,
						"contract": "Users/eoghan/repos/ScheduledFunctionCallDirectory/src/ScheduledFunctionCallDirectory.sol:ScheduledFunctionCallDirectory",
						"label": "values",
						"offset": 0,
						"slot": "5",
						"type": "t_mapping(t_uint256,t_uint256)"
					}
				],
				"types": {
					"t_address": {
						"encoding": "inplace",
						"label": "address",
						"numberOfBytes": "20"
					},
					"t_bytes_storage": {
						"encoding": "bytes",
						"label": "bytes",
						"numberOfBytes": "32"
					},
					"t_mapping(t_uint256,t_address)": {
						"encoding": "mapping",
						"key": "t_uint256",
						"label": "mapping(uint256 => address)",
						"numberOfBytes": "32",
						"value": "t_address"
					},
					"t_mapping(t_uint256,t_bytes_storage)": {
						"encoding": "mapping",
						"key": "t_uint256",
						"label": "mapping(uint256 => bytes)",
						"numberOfBytes": "32",
						"value": "t_bytes_storage"
					},
					"t_mapping(t_uint256,t_uint256)": {
						"encoding": "mapping",
						"key": "t_uint256",
						"label": "mapping(uint256 => uint256)",
						"numberOfBytes": "32",
						"value": "t_uint256"
					},
					"t_uint256": {
						"encoding": "inplace",
						"label": "uint256",
						"numberOfBytes": "32"
					}
				}
			},
			"userdoc": {
				"kind": "user",
				"methods": {},
				"notice": "Allows registering of function calls to be executed beyond a time, with a reward to the maker. Calls will be made in the context of the eventual caller, so scheduling calls that functionally observe msg.sender is not advised.",
				"version": 1
			}
		}
	}
}