{
	"data": {
		"bytecode": {
			"linkReferences": {},
			"object": "608060405234801561001057600080fd5b506040516102fa3803806102fa8339818101604052810190610032919061008e565b806000806101000a81548160ff021916908315150217905550506100bb565b600080fd5b60008115159050919050565b61006b81610056565b811461007657600080fd5b50565b60008151905061008881610062565b92915050565b6000602082840312156100a4576100a3610051565b5b60006100b284828501610079565b91505092915050565b610230806100ca6000396000f3fe60806040526004361061001e5760003560e01c806374b1f8d314610023575b600080fd5b61003d60048036038101906100389190610105565b61003f565b005b60008054906101000a900460ff161561008d576040517f08c379a0000000000000000000000000000000000000000000000000000000008152600401610084906101a2565b60405180910390fd5b7f3f56012759360bb376183728b337f19a530335d8567527b2bf8df25a6a66e69982826040516100be9291906101d1565b60405180910390a15050565b600080fd5b6000819050919050565b6100e2816100cf565b81146100ed57600080fd5b50565b6000813590506100ff816100d9565b92915050565b6000806040838503121561011c5761011b6100ca565b5b600061012a858286016100f0565b925050602061013b858286016100f0565b9150509250929050565b600082825260208201905092915050565b7f7265766572747321000000000000000000000000000000000000000000000000600082015250565b600061018c600883610145565b915061019782610156565b602082019050919050565b600060208201905081810360008301526101bb8161017f565b9050919050565b6101cb816100cf565b82525050565b60006040820190506101e660008301856101c2565b6101f360208301846101c2565b939250505056fea2646970667358221220143924078d9dce762e1584d16c716b1bd6e1267cf55d54af1d1948fb5331229764736f6c63430008100033",
			"opcodes": "PUSH1 0x80 PUSH1 0x40 MSTORE CALLVALUE DUP1 ISZERO PUSH2 0x10 JUMPI PUSH1 0x0 DUP1 REVERT JUMPDEST POP PUSH1 0x40 MLOAD PUSH2 0x2FA CODESIZE SUB DUP1 PUSH2 0x2FA DUP4 CODECOPY DUP2 DUP2 ADD PUSH1 0x40 MSTORE DUP2 ADD SWAP1 PUSH2 0x32 SWAP2 SWAP1 PUSH2 0x8E JUMP JUMPDEST DUP1 PUSH1 0x0 DUP1 PUSH2 0x100 EXP DUP2 SLOAD DUP2 PUSH1 0xFF MUL NOT AND SWAP1 DUP4 ISZERO ISZERO MUL OR SWAP1 SSTORE POP POP PUSH2 0xBB JUMP JUMPDEST PUSH1 0x0 DUP1 REVERT JUMPDEST PUSH1 0x0 DUP2 ISZERO ISZERO SWAP1 POP SWAP2 SWAP1 POP JUMP JUMPDEST PUSH2 0x6B DUP2 PUSH2 0x56 JUMP JUMPDEST DUP2 EQ PUSH2 0x76 JUMPI PUSH1 0x0 DUP1 REVERT JUMPDEST POP JUMP JUMPDEST PUSH1 0x0 DUP2 MLOAD SWAP1 POP PUSH2 0x88 DUP2 PUSH2 0x62 JUMP JUMPDEST SWAP3 SWAP2 POP POP JUMP JUMPDEST PUSH1 0x0 PUSH1 0x20 DUP3 DUP5 SUB SLT ISZERO PUSH2 0xA4 JUMPI PUSH2 0xA3 PUSH2 0x51 JUMP JUMPDEST JUMPDEST PUSH1 0x0 PUSH2 0xB2 DUP5 DUP3 DUP6 ADD PUSH2 0x79 JUMP JUMPDEST SWAP2 POP POP SWAP3 SWAP2 POP POP JUMP JUMPDEST PUSH2 0x230 DUP1 PUSH2 0xCA PUSH1 0x0 CODECOPY PUSH1 0x0 RETURN INVALID PUSH1 0x80 PUSH1 0x40 MSTORE PUSH1 0x4 CALLDATASIZE LT PUSH2 0x1E JUMPI PUSH1 0x0 CALLDATALOAD PUSH1 0xE0 SHR DUP1 PUSH4 0x74B1F8D3 EQ PUSH2 0x23 JUMPI JUMPDEST PUSH1 0x0 DUP1 REVERT JUMPDEST PUSH2 0x3D PUSH1 0x4 DUP1 CALLDATASIZE SUB DUP2 ADD SWAP1 PUSH2 0x38 SWAP2 SWAP1 PUSH2 0x105 JUMP JUMPDEST PUSH2 0x3F JUMP JUMPDEST STOP JUMPDEST PUSH1 0x0 DUP1 SLOAD SWAP1 PUSH2 0x100 EXP SWAP1 DIV PUSH1 0xFF AND ISZERO PUSH2 0x8D JUMPI PUSH1 0x40 MLOAD PUSH32 0x8C379A000000000000000000000000000000000000000000000000000000000 DUP2 MSTORE PUSH1 0x4 ADD PUSH2 0x84 SWAP1 PUSH2 0x1A2 JUMP JUMPDEST PUSH1 0x40 MLOAD DUP1 SWAP2 SUB SWAP1 REVERT JUMPDEST PUSH32 0x3F56012759360BB376183728B337F19A530335D8567527B2BF8DF25A6A66E699 DUP3 DUP3 PUSH1 0x40 MLOAD PUSH2 0xBE SWAP3 SWAP2 SWAP1 PUSH2 0x1D1 JUMP JUMPDEST PUSH1 0x40 MLOAD DUP1 SWAP2 SUB SWAP1 LOG1 POP POP JUMP JUMPDEST PUSH1 0x0 DUP1 REVERT JUMPDEST PUSH1 0x0 DUP2 SWAP1 POP SWAP2 SWAP1 POP JUMP JUMPDEST PUSH2 0xE2 DUP2 PUSH2 0xCF JUMP JUMPDEST DUP2 EQ PUSH2 0xED JUMPI PUSH1 0x0 DUP1 REVERT JUMPDEST POP JUMP JUMPDEST PUSH1 0x0 DUP2 CALLDATALOAD SWAP1 POP PUSH2 0xFF DUP2 PUSH2 0xD9 JUMP JUMPDEST SWAP3 SWAP2 POP POP JUMP JUMPDEST PUSH1 0x0 DUP1 PUSH1 0x40 DUP4 DUP6 SUB SLT ISZERO PUSH2 0x11C JUMPI PUSH2 0x11B PUSH2 0xCA JUMP JUMPDEST JUMPDEST PUSH1 0x0 PUSH2 0x12A DUP6 DUP3 DUP7 ADD PUSH2 0xF0 JUMP JUMPDEST SWAP3 POP POP PUSH1 0x20 PUSH2 0x13B DUP6 DUP3 DUP7 ADD PUSH2 0xF0 JUMP JUMPDEST SWAP2 POP POP SWAP3 POP SWAP3 SWAP1 POP JUMP JUMPDEST PUSH1 0x0 DUP3 DUP3 MSTORE PUSH1 0x20 DUP3 ADD SWAP1 POP SWAP3 SWAP2 POP POP JUMP JUMPDEST PUSH32 0x7265766572747321000000000000000000000000000000000000000000000000 PUSH1 0x0 DUP3 ADD MSTORE POP JUMP JUMPDEST PUSH1 0x0 PUSH2 0x18C PUSH1 0x8 DUP4 PUSH2 0x145 JUMP JUMPDEST SWAP2 POP PUSH2 0x197 DUP3 PUSH2 0x156 JUMP JUMPDEST PUSH1 0x20 DUP3 ADD SWAP1 POP SWAP2 SWAP1 POP JUMP JUMPDEST PUSH1 0x0 PUSH1 0x20 DUP3 ADD SWAP1 POP DUP2 DUP2 SUB PUSH1 0x0 DUP4 ADD MSTORE PUSH2 0x1BB DUP2 PUSH2 0x17F JUMP JUMPDEST SWAP1 POP SWAP2 SWAP1 POP JUMP JUMPDEST PUSH2 0x1CB DUP2 PUSH2 0xCF JUMP JUMPDEST DUP3 MSTORE POP POP JUMP JUMPDEST PUSH1 0x0 PUSH1 0x40 DUP3 ADD SWAP1 POP PUSH2 0x1E6 PUSH1 0x0 DUP4 ADD DUP6 PUSH2 0x1C2 JUMP JUMPDEST PUSH2 0x1F3 PUSH1 0x20 DUP4 ADD DUP5 PUSH2 0x1C2 JUMP JUMPDEST SWAP4 SWAP3 POP POP POP JUMP INVALID LOG2 PUSH5 0x6970667358 0x22 SLT KECCAK256 EQ CODECOPY 0x24 SMOD DUP14 SWAP14 0xCE PUSH23 0x2E1584D16C716B1BD6E1267CF55D54AF1D1948FB533122 SWAP8 PUSH5 0x736F6C6343 STOP ADDMOD LT STOP CALLER "
		},
		"gasEstimates": {
			"creation": {
				"codeDepositCost": "112000",
				"executionCost": "infinite",
				"totalCost": "infinite"
			},
			"external": {
				"payableFunction(uint256,uint256)": "infinite"
			}
		},
		"methodIdentifiers": {
			"payableFunction(uint256,uint256)": "74b1f8d3"
		}
	},
	"abi": [
		{
			"inputs": [
				{
					"internalType": "bool",
					"name": "shouldRevert",
					"type": "bool"
				}
			],
			"stateMutability": "nonpayable",
			"type": "constructor"
		},
		{
			"anonymous": false,
			"inputs": [
				{
					"indexed": false,
					"internalType": "uint256",
					"name": "argument1",
					"type": "uint256"
				},
				{
					"indexed": false,
					"internalType": "uint256",
					"name": "argument2",
					"type": "uint256"
				}
			],
			"name": "Called",
			"type": "event"
		},
		{
			"inputs": [
				{
					"internalType": "uint256",
					"name": "argument1",
					"type": "uint256"
				},
				{
					"internalType": "uint256",
					"name": "argument2",
					"type": "uint256"
				}
			],
			"name": "payableFunction",
			"outputs": [],
			"stateMutability": "payable",
			"type": "function"
		}
	]
}